{
  "transactions": [
    {
      "hash": "0x6fd9a26a9a53676eb1bcd5b5b2d6c382e3cccb7024762bf47827a0e348d0157e",
      "transactionType": "CREATE",
      "contractName": "DeepFiConsumer",
      "contractAddress": "0x80197F74185e912e1769A0C964851c279dCB1688",
      "function": null,
      "arguments": [
        "0x6E2dc0F9DB014aE19888F539E59285D2Ea04244C",
        "0x66756e2d706f6c79676f6e2d6d756d6261692d31000000000000000000000000",
        "0xE592427A0AEce92De3Edee1F18E0157C05861564"
      ],
      "transaction": {
        "type": "0x02",
        "from": "0x546b4666786c486eecc146fd04b6dfe1b166735b",
        "gas": "0x2b961f",
        "value": "0x0",
        "data": "0x60e06040523480156200001157600080fd5b5060405162002822380380620028228339810160408190526200003491620001aa565b6001600160a01b038316608052803380600081620000995760405162461bcd60e51b815260206004820152601860248201527f43616e6e6f7420736574206f776e657220746f207a65726f000000000000000060448201526064015b60405180910390fd5b600080546001600160a01b0319166001600160a01b0384811691909117909155811615620000cc57620000cc81620000e6565b5050506001600160a01b031660a0525060025550620001f2565b336001600160a01b03821603620001405760405162461bcd60e51b815260206004820152601760248201527f43616e6e6f74207472616e7366657220746f2073656c66000000000000000000604482015260640162000090565b600180546001600160a01b0319166001600160a01b0383811691821790925560008054604051929316917fed8889f560326eb138920d842192f0eb3dd22b4f139c87a2c57538e05bae12789190a350565b6001600160a01b0381168114620001a757600080fd5b50565b600080600060608486031215620001c057600080fd5b8351620001cd8162000191565b602085015160408601519194509250620001e78162000191565b809150509250925092565b60805160a05160c0516125dd620002456000396000818161042d015261086d0152600081816105070152818161123a015281816113c8015261153e0152600081816105540152610ec501526125dd6000f3fe6080604052600436106101855760003560e01c80638009b7bd116100d1578063a452b3121161008a578063ad5c464811610064578063ad5c4648146104b7578063b1e21749146104df578063c31c9c07146104f5578063f2fde38b1461052957600080fd5b8063a452b3121461044f578063a975b3591461046f578063abaf8edb1461048f57600080fd5b80638009b7bd1461036f57806389a30271146103975780638da5cb5b146103bf5780638dbe7b9d146103dd57806393e33c78146103f3578063947a36fb1461041b57600080fd5b80633f3b3b271161013e57806363db79c51161011857806363db79c5146102dc5780636e04ff0d1461030c57806378ca5de71461033a57806379ba50971461035a57600080fd5b80633f3b3b27146102845780634585e33b146102a85780634b0795a8146102c757600080fd5b8063089fe6aa146101915780630ca76175146101c05780631b6b6d23146101e2578063231c16191461022257806327be5cd7146102425780633944ea3a1461026257600080fd5b3661018c57005b600080fd5b34801561019d57600080fd5b506101a7610bb881565b60405162ffffff90911681526020015b60405180910390f35b3480156101cc57600080fd5b506101e06101db366004611b18565b610549565b005b3480156101ee57600080fd5b5061020a73326c977e6efc84e512bb9c30f76e30c160ed06fb81565b6040516001600160a01b0390911681526020016101b7565b34801561022e57600080fd5b506101e061023d366004611c4f565b6105cd565b34801561024e57600080fd5b506101e061025d366004611d45565b610720565b34801561026e57600080fd5b5061027761074a565b6040516101b79190611df6565b34801561029057600080fd5b5061029a60065481565b6040519081526020016101b7565b3480156102b457600080fd5b506101e06102c3366004611e09565b5050565b3480156102d357600080fd5b506102776107d8565b3480156102e857600080fd5b506102fc6102f7366004611e4a565b6107e5565b60405190151581526020016101b7565b34801561031857600080fd5b5061032c610327366004611e09565b610867565b6040516101b7929190611ead565b34801561034657600080fd5b506101e0610355366004611ed0565b6108a4565b34801561036657600080fd5b506101e06108b1565b34801561037b57600080fd5b5061020a730715a7794a1dc8e42615f059dd6e406a6594651a81565b3480156103a357600080fd5b5061020a739999f7fea5938fd3b1e26a12c3f2fb024e194f9781565b3480156103cb57600080fd5b506000546001600160a01b031661020a565b3480156103e957600080fd5b5061029a60025481565b3480156103ff57600080fd5b5061020a731c2252aeed50e0c9b64bdff2735ee3c932f5c40881565b34801561042757600080fd5b5061029a7f000000000000000000000000000000000000000000000000000000000000000081565b34801561045b57600080fd5b506101e061046a366004611ee9565b610960565b34801561047b57600080fd5b506101e061048a366004611e09565b61099a565b34801561049b57600080fd5b5061020a7312162c3e810393dec01362abf156d7ecf615952881565b3480156104c357600080fd5b5061020a73a6fa4fb5f76172d178d61b04b0ecd319c5d1c0aa81565b3480156104eb57600080fd5b5061029a60035481565b34801561050157600080fd5b5061020a7f000000000000000000000000000000000000000000000000000000000000000081565b34801561053557600080fd5b506101e0610544366004611f82565b6109ab565b336001600160a01b037f000000000000000000000000000000000000000000000000000000000000000016146105925760405163c6829f8360e01b815260040160405180910390fd5b61059d8383836109bf565b60405183907f85e1543bf2f84fe80c6badbce3648c8539ad1df4d2b3d822938ca0538be727e690600090a2505050565b6105d5610ac1565b6106166040805160e0810190915280600081526020016000815260200160008152602001606081526020016060815260200160608152602001606081525090565b61065d6000808e8e8080601f01602080910402602001604051908101604052809392919081815260200183838082843760009201919091525087959493925050610b169050565b602081018a600281111561067357610673611fab565b9081600281111561068657610686611fab565b8152505088888080601f016020809104026020016040519081016040528093929190818152602001838380828437600092019190915250505050608082015285156106df576106df6106d88789611fe4565b8290610b94565b83156106f9576106f96106f28587612070565b8290610bbe565b61070f61070582610be8565b8484600254610ec0565b600355505050505050505050505050565b610728610ac1565b600a61073584868361215f565b50600b61074382848361215f565b5050505050565b60048054610757906120d7565b80601f0160208091040260200160405190810160405280929190818152602001828054610783906120d7565b80156107d05780601f106107a5576101008083540402835291602001916107d0565b820191906000526020600020905b8154815290600101906020018083116107b357829003601f168201915b505050505081565b60058054610757906120d7565b6000805b835181101561085b578281815181106108045761080461221e565b602001015160f81c60f81b6001600160f81b03191684828151811061082b5761082b61221e565b01602001516001600160f81b03191614610849576000915050610861565b806108538161224a565b9150506107e9565b50600190505b92915050565b600060607f00000000000000000000000000000000000000000000000000000000000000006006544261089a9190612263565b1191509250929050565b6108ac610ac1565b600255565b6001546001600160a01b031633146109095760405162461bcd60e51b815260206004820152601660248201527526bab9ba10313290383937b837b9b2b21037bbb732b960511b60448201526064015b60405180910390fd5b60008054336001600160a01b0319808316821784556001805490911690556040516001600160a01b0390921692909183917f8be0079c531659141344cd1fd0a4f28419497f9722a3daafe3b4186f6b6457e091a350565b610968610ac1565b600761097586888361215f565b50600861098384868361215f565b50600961099182848361215f565b50505050505050565b6102c382826103e9620493e0610f92565b6109b3610ac1565b6109bc8161103f565b50565b60046109cb8382612276565b5060056109d88282612276565b5060006040518060600160405280602481526020016125606024913990506000604051806060016040528060248152602001612584602491399050610a1d84836107e5565b8015610a2e5750610a2e84826107e5565b15610a7f57604051600181527f8b59bd0e9151277543b80928e439a0f6b811fccde6fd2e41563a99fe1d0f4b769060200160405180910390a1610a7a610a758560016110e8565b6114cc565b610743565b604051600081527f8b59bd0e9151277543b80928e439a0f6b811fccde6fd2e41563a99fe1d0f4b769060200160405180910390a1610743610a758560006110e8565b6000546001600160a01b03163314610b145760405162461bcd60e51b815260206004820152601660248201527527b7363c9031b0b63630b1363290313c9037bbb732b960511b6044820152606401610900565b565b8051600003610b38576040516322ce3edd60e01b815260040160405180910390fd5b83836002811115610b4b57610b4b611fab565b90816002811115610b5e57610b5e611fab565b90525060408401828015610b7457610b74611fab565b90818015610b8457610b84611fab565b9052506060909301929092525050565b8051600003610bb65760405163fe936cb760e01b815260040160405180910390fd5b60a090910152565b8051600003610be05760405163fe936cb760e01b815260040160405180910390fd5b60c090910152565b60606000610bf76101006115b4565b9050610c306040518060400160405280600c81526020016b31b7b232a637b1b0ba34b7b760a11b815250826115d590919063ffffffff16565b8251610c4e906002811115610c4757610c47611fab565b82906115f3565b6040805180820190915260088152676c616e677561676560c01b6020820152610c789082906115d5565b6040830151610c8f908015610c4757610c47611fab565b604080518082019091526006815265736f7572636560d01b6020820152610cb79082906115d5565b6060830151610cc79082906115d5565b60a08301515115610d5b576040805180820190915260048152636172677360e01b6020820152610cf89082906115d5565b610d018161162c565b60005b8360a0015151811015610d5157610d418460a001518281518110610d2a57610d2a61221e565b6020026020010151836115d590919063ffffffff16565b610d4a8161224a565b9050610d04565b50610d5b81611650565b60808301515115610e1f57600083602001516002811115610d7e57610d7e611fab565b03610d9c5760405163a80d31f760e01b815260040160405180910390fd5b60408051808201909152600f81526e39b2b1b932ba39a637b1b0ba34b7b760891b6020820152610dcd9082906115d5565b610de683602001516002811115610c4757610c47611fab565b6040805180820190915260078152667365637265747360c81b6020820152610e0f9082906115d5565b6080830151610e1f90829061166e565b60c08301515115610eb85760408051808201909152600981526862797465734172677360b81b6020820152610e559082906115d5565b610e5e8161162c565b60005b8360c0015151811015610eae57610e9e8460c001518281518110610e8757610e8761221e565b60200260200101518361166e90919063ffffffff16565b610ea78161224a565b9050610e61565b50610eb881611650565b515192915050565b6000807f00000000000000000000000000000000000000000000000000000000000000006001600160a01b031663461d27628688600188886040518663ffffffff1660e01b8152600401610f18959493929190612335565b6020604051808303816000875af1158015610f37573d6000803e3d6000fd5b505050506040513d601f19601f82011682018060405250810190610f5b919061237e565b60405190915081907f1131472297a800fee664d1d89cfa8f7676ff07189ecc53f80bbb5f4969099db890600090a295945050505050565b610f9a610ac1565b610fdb6040805160e0810190915280600081526020016000815260200160008152602001606081526020016060815260200160608152602001606081525090565b61102260008087878080601f01602080910402602001604051908101604052809392919081815260200183838082843760009201919091525087959493925050610b169050565b6000602082015261103561070582610be8565b6003555050505050565b336001600160a01b038216036110975760405162461bcd60e51b815260206004820152601760248201527f43616e6e6f74207472616e7366657220746f2073656c660000000000000000006044820152606401610900565b600180546001600160a01b0319166001600160a01b0383811691821790925560008054604051929316917fed8889f560326eb138920d842192f0eb3dd22b4f139c87a2c57538e05bae12789190a350565b6040805161010081018252600080825260208201819052918101829052606081018290526080810182905260a0810182905260c0810182905260e08101919091526000730715a7794a1dc8e42615f059dd6e406a6594651a6001600160a01b031663feaf968c6040518163ffffffff1660e01b815260040160a060405180830381865afa15801561117d573d6000803e3d6000fd5b505050506040513d601f19601f820116820180604052508101906111a191906123b1565b505050915050821561133b576040516370a0823160e01b8152306004820152600090739999f7fea5938fd3b1e26a12c3f2fb024e194f97906370a0823190602401602060405180830381865afa1580156111ff573d6000803e3d6000fd5b505050506040513d601f19601f82011682018060405250810190611223919061237e565b60405163095ea7b360e01b81526001600160a01b037f000000000000000000000000000000000000000000000000000000000000000016600482015260248101829052909150739999f7fea5938fd3b1e26a12c3f2fb024e194f979063095ea7b3906044016020604051808303816000875af11580156112a7573d6000803e3d6000fd5b505050506040513d601f19601f820116820180604052508101906112cb9190612401565b506040805161010081018252739999f7fea5938fd3b1e26a12c3f2fb024e194f97815273a6fa4fb5f76172d178d61b04b0ecd319c5d1c0aa6020820152610bb89181019190915233606082015242608082015260a081019190915260c08101829052600060e082015291506114c5565b6040516370a0823160e01b815230600482015260009073a6fa4fb5f76172d178d61b04b0ecd319c5d1c0aa906370a0823190602401602060405180830381865afa15801561138d573d6000803e3d6000fd5b505050506040513d601f19601f820116820180604052508101906113b1919061237e565b60405163095ea7b360e01b81526001600160a01b037f00000000000000000000000000000000000000000000000000000000000000001660048201526024810182905290915073a6fa4fb5f76172d178d61b04b0ecd319c5d1c0aa9063095ea7b3906044016020604051808303816000875af1158015611435573d6000803e3d6000fd5b505050506040513d601f19601f820116820180604052508101906114599190612401565b50604080516101008101825273a6fa4fb5f76172d178d61b04b0ecd319c5d1c0aa8152739999f7fea5938fd3b1e26a12c3f2fb024e194f976020820152610bb89181019190915233606082015242608082015260a081019190915260c08101829052600060e082015291505b5092915050565b6040805163414bf38960e01b815282516001600160a01b0390811660048301526020840151811660248301529183015162ffffff1660448201526060830151821660648201526080830151608482015260a083015160a482015260c083015160c482015260e0830151821660e48201527f00000000000000000000000000000000000000000000000000000000000000009091169063414bf38990610104016020604051808303816000875af115801561158a573d6000803e3d6000fd5b505050506040513d601f19601f820116820180604052508101906115ae919061237e565b600c5550565b6115bc611a26565b80516115c8908361167b565b5060006020820152919050565b6115e282600383516116f2565b81516115ee9082611811565b505050565b81516116009060c2611839565b506102c3828260405160200161161891815260200190565b60405160208183030381529060405261166e565b6116378160046118a2565b60018160200181815161164a9190612423565b90525050565b61165b8160076118a2565b60018160200181815161164a9190612263565b6115e282600283516116f2565b60408051808201909152606081526000602082015261169b602083612436565b156116c3576116ab602083612436565b6116b6906020612263565b6116c09083612423565b91505b6020808401839052604051808552600081529081840101818110156116e757600080fd5b604052509192915050565b6017816001600160401b03161161171e5782516117189060e0600585901b168317611839565b50505050565b60ff816001600160401b03161161175e578251611746906018611fe0600586901b1617611839565b508251611718906001600160401b03831660016118b9565b61ffff816001600160401b03161161179f578251611787906019611fe0600586901b1617611839565b508251611718906001600160401b03831660026118b9565b63ffffffff816001600160401b0316116117e25782516117ca90601a611fe0600586901b1617611839565b508251611718906001600160401b03831660046118b9565b82516117f990601b611fe0600586901b1617611839565b508251611718906001600160401b03831660086118b9565b6040805180820190915260608152600060208201526118328383845161193e565b9392505050565b604080518082019091526060815260006020820152825151600061185e826001612423565b90508460200151821061187f5761187f8561187a836002612458565b611a0f565b8451602083820101858153508051821115611898578181525b5093949350505050565b81516115ee90601f611fe0600585901b1617611839565b60408051808201909152606081526000602082015283515160006118dd8285612423565b905085602001518111156118fa576118fa8661187a836002612458565b6000600161190a86610100612553565b6119149190612263565b90508651828101878319825116178152508051831115611932578281525b50959695505050505050565b604080518082019091526060815260006020820152825182111561196157600080fd5b83515160006119708483612423565b9050856020015181111561198d5761198d8661187a836002612458565b8551805183820160200191600091808511156119a7578482525b505050602086015b602086106119e757805182526119c6602083612423565b91506119d3602082612423565b90506119e0602087612263565b95506119af565b51815160001960208890036101000a0190811690199190911617905250849150509392505050565b8151611a1b838361167b565b506117188382611811565b6040518060400160405280611a4e604051806040016040528060608152602001600081525090565b8152602001600081525090565b634e487b7160e01b600052604160045260246000fd5b604051601f8201601f191681016001600160401b0381118282101715611a9957611a99611a5b565b604052919050565b60006001600160401b03831115611aba57611aba611a5b565b611acd601f8401601f1916602001611a71565b9050828152838383011115611ae157600080fd5b828260208301376000602084830101529392505050565b600082601f830112611b0957600080fd5b61183283833560208501611aa1565b600080600060608486031215611b2d57600080fd5b8335925060208401356001600160401b0380821115611b4b57600080fd5b611b5787838801611af8565b93506040860135915080821115611b6d57600080fd5b50611b7a86828701611af8565b9150509250925092565b60008083601f840112611b9657600080fd5b5081356001600160401b03811115611bad57600080fd5b602083019150836020828501011115611bc557600080fd5b9250929050565b803560038110611bdb57600080fd5b919050565b60008083601f840112611bf257600080fd5b5081356001600160401b03811115611c0957600080fd5b6020830191508360208260051b8501011115611bc557600080fd5b80356001600160401b0381168114611bdb57600080fd5b803563ffffffff81168114611bdb57600080fd5b600080600080600080600080600080600060e08c8e031215611c7057600080fd5b6001600160401b03808d351115611c8657600080fd5b611c938e8e358f01611b84565b909c509a50611ca460208e01611bcc565b99508060408e01351115611cb757600080fd5b611cc78e60408f01358f01611b84565b909950975060608d0135811015611cdd57600080fd5b611ced8e60608f01358f01611be0565b909750955060808d0135811015611d0357600080fd5b50611d148d60808e01358e01611be0565b9094509250611d2560a08d01611c24565b9150611d3360c08d01611c3b565b90509295989b509295989b9093969950565b60008060008060408587031215611d5b57600080fd5b84356001600160401b0380821115611d7257600080fd5b611d7e88838901611b84565b90965094506020870135915080821115611d9757600080fd5b50611da487828801611b84565b95989497509550505050565b6000815180845260005b81811015611dd657602081850181015186830182015201611dba565b506000602082860101526020601f19601f83011685010191505092915050565b6020815260006118326020830184611db0565b60008060208385031215611e1c57600080fd5b82356001600160401b03811115611e3257600080fd5b611e3e85828601611b84565b90969095509350505050565b60008060408385031215611e5d57600080fd5b82356001600160401b0380821115611e7457600080fd5b611e8086838701611af8565b93506020850135915080821115611e9657600080fd5b50611ea385828601611af8565b9150509250929050565b8215158152604060208201526000611ec86040830184611db0565b949350505050565b600060208284031215611ee257600080fd5b5035919050565b60008060008060008060608789031215611f0257600080fd5b86356001600160401b0380821115611f1957600080fd5b611f258a838b01611b84565b90985096506020890135915080821115611f3e57600080fd5b611f4a8a838b01611b84565b90965094506040890135915080821115611f6357600080fd5b50611f7089828a01611b84565b979a9699509497509295939492505050565b600060208284031215611f9457600080fd5b81356001600160a01b038116811461183257600080fd5b634e487b7160e01b600052602160045260246000fd5b60006001600160401b03821115611fda57611fda611a5b565b5060051b60200190565b6000611ff7611ff284611fc1565b611a71565b80848252602080830192508560051b85013681111561201557600080fd5b855b818110156120645780356001600160401b038111156120365760008081fd5b870136601f8201126120485760008081fd5b612056368235868401611aa1565b865250938201938201612017565b50919695505050505050565b600061207e611ff284611fc1565b80848252602080830192508560051b85013681111561209c57600080fd5b855b818110156120645780356001600160401b038111156120bd5760008081fd5b6120c936828a01611af8565b86525093820193820161209e565b600181811c908216806120eb57607f821691505b60208210810361210b57634e487b7160e01b600052602260045260246000fd5b50919050565b601f8211156115ee57600081815260208120601f850160051c810160208610156121385750805b601f850160051c820191505b8181101561215757828155600101612144565b505050505050565b6001600160401b0383111561217657612176611a5b565b61218a8361218483546120d7565b83612111565b6000601f8411600181146121be57600085156121a65750838201355b600019600387901b1c1916600186901b178355610743565b600083815260209020601f19861690835b828110156121ef57868501358255602094850194600190920191016121cf565b508682101561220c5760001960f88860031b161c19848701351681555b505060018560011b0183555050505050565b634e487b7160e01b600052603260045260246000fd5b634e487b7160e01b600052601160045260246000fd5b60006001820161225c5761225c612234565b5060010190565b8181038181111561086157610861612234565b81516001600160401b0381111561228f5761228f611a5b565b6122a38161229d84546120d7565b84612111565b602080601f8311600181146122d857600084156122c05750858301515b600019600386901b1c1916600185901b178555612157565b600085815260208120601f198616915b82811015612307578886015182559484019460019091019084016122e8565b50858210156123255787850151600019600388901b60f8161c191681555b5050505050600190811b01905550565b6001600160401b038616815260a06020820152600061235760a0830187611db0565b61ffff9590951660408301525063ffffffff92909216606083015260809091015292915050565b60006020828403121561239057600080fd5b5051919050565b805169ffffffffffffffffffff81168114611bdb57600080fd5b600080600080600060a086880312156123c957600080fd5b6123d286612397565b94506020860151935060408601519250606086015191506123f560808701612397565b90509295509295909350565b60006020828403121561241357600080fd5b8151801515811461183257600080fd5b8082018082111561086157610861612234565b60008261245357634e487b7160e01b600052601260045260246000fd5b500690565b808202811582820484141761086157610861612234565b600181815b808511156124aa57816000190482111561249057612490612234565b8085161561249d57918102915b93841c9390800290612474565b509250929050565b6000826124c157506001610861565b816124ce57506000610861565b81600181146124e457600281146124ee5761250a565b6001915050610861565b60ff8411156124ff576124ff612234565b50506001821b610861565b5060208310610133831016604e8410600b841016171561252d575081810a610861565b612537838361246f565b806000190482111561254b5761254b612234565b029392505050565b600061183283836124b256fe307837323631366536373635356637333638366637323734356636353665373437323739307837333737363936653637356637333638366637323734356636353665373437323739a2646970667358221220ebb7af26731e28128bf68b1fb0ff4d852c72f08e73cae5b8bca38a492a597d0f64736f6c634300081500330000000000000000000000006e2dc0f9db014ae19888f539e59285d2ea04244c66756e2d706f6c79676f6e2d6d756d6261692d31000000000000000000000000000000000000000000000000e592427a0aece92de3edee1f18e0157c05861564",
        "nonce": "0x69",
        "accessList": []
      },
      "additionalContracts": [],
      "isFixedGasLimit": false
    },
    {
      "hash": "0x699a7349d66be918085bc51f8073afc8448c2a29a2b97d274eb9cecc17b1633b",
      "transactionType": "CALL",
      "contractName": "DeepFiConsumer",
      "contractAddress": "0x80197F74185e912e1769A0C964851c279dCB1688",
      "function": "setSourceRefs(string,bytes,string)",
      "arguments": [
        "",
        "0x",
        "{\"entry_price\": \"\"}"
      ],
      "transaction": {
        "type": "0x02",
        "from": "0x546b4666786c486eecc146fd04b6dfe1b166735b",
        "to": "0x80197f74185e912e1769a0c964851c279dcb1688",
        "gas": "0x11e69",
        "value": "0x0",
        "data": "0xa452b3120000000000000000000000000000000000000000000000000000000000000060000000000000000000000000000000000000000000000000000000000000008000000000000000000000000000000000000000000000000000000000000000a00000000000000000000000000000000000000000000000000000000000000000000000000000000000000000000000000000000000000000000000000000000000000000000000000000000000000000000000000000000000000000000000137b22656e7472795f7072696365223a2022227d00000000000000000000000000",
        "nonce": "0x6a",
        "accessList": []
      },
      "additionalContracts": [],
      "isFixedGasLimit": false
    },
    {
      "hash": "0x605844ccc48db86d841872bf8d8f16631442bd1fa07773f884fc4d8c404b2c5e",
      "transactionType": "CALL",
      "contractName": "DeepFiConsumer",
      "contractAddress": "0x80197F74185e912e1769A0C964851c279dCB1688",
      "function": "setExits(bytes,bytes)",
      "arguments": [
        "0x307837333737363936653637356637333638366637323734356636353665373437323739",
        "0x307837323631366536373635356637333638366637323734356636353665373437323739"
      ],
      "transaction": {
        "type": "0x02",
        "from": "0x546b4666786c486eecc146fd04b6dfe1b166735b",
        "to": "0x80197f74185e912e1769a0c964851c279dcb1688",
        "gas": "0x390a9",
        "value": "0x0",
        "data": "0x27be5cd7000000000000000000000000000000000000000000000000000000000000004000000000000000000000000000000000000000000000000000000000000000a0000000000000000000000000000000000000000000000000000000000000002430783733373736393665363735663733363836663732373435663635366537343732373900000000000000000000000000000000000000000000000000000000000000000000000000000000000000000000000000000000000000000000002430783732363136653637363535663733363836663732373435663635366537343732373900000000000000000000000000000000000000000000000000000000",
        "nonce": "0x6b",
        "accessList": []
      },
      "additionalContracts": [],
      "isFixedGasLimit": false
    },
    {
      "hash": "0xa48b935fa4ef95c0377d4304666a4944f608546802d19afc8a1a6bffd42007bd",
      "transactionType": "CALL",
      "contractName": null,
      "contractAddress": "0x6E2dc0F9DB014aE19888F539E59285D2Ea04244C",
      "function": null,
      "arguments": null,
      "transaction": {
        "type": "0x02",
        "from": "0x546b4666786c486eecc146fd04b6dfe1b166735b",
        "to": "0x6e2dc0f9db014ae19888f539e59285d2ea04244c",
        "gas": "0x210be",
        "value": "0x0",
        "data": "0x7341c10c00000000000000000000000000000000000000000000000000000000000003e900000000000000000000000080197f74185e912e1769a0c964851c279dcb1688",
        "nonce": "0x6c",
        "accessList": []
      },
      "additionalContracts": [],
      "isFixedGasLimit": false
    },
    {
      "hash": "0x9e1a246147cd64c20691d8cefd437b35e40a989c19f3853d1227d9c6f471ffe3",
      "transactionType": "CALL",
      "contractName": null,
      "contractAddress": "0x9999f7Fea5938fD3b1E26A12c3f2fb024e194f97",
      "function": null,
      "arguments": null,
      "transaction": {
        "type": "0x02",
        "from": "0x546b4666786c486eecc146fd04b6dfe1b166735b",
        "to": "0x9999f7fea5938fd3b1e26a12c3f2fb024e194f97",
        "gas": "0x14f3f",
        "value": "0x0",
        "data": "0xa9059cbb00000000000000000000000080197f74185e912e1769a0c964851c279dcb16880000000000000000000000000000000000000000000000000000000000000064",
        "nonce": "0x6d",
        "accessList": []
      },
      "additionalContracts": [],
      "isFixedGasLimit": false
    },
    {
      "hash": "0x9daf5c12d93eb34d70b868161d20b10b8a0c3633e34a310c537e181212275bd3",
      "transactionType": "CALL",
      "contractName": null,
      "contractAddress": "0xA6FA4fB5f76172d178d61B04b0ecd319C5d1C0aa",
      "function": null,
      "arguments": null,
      "transaction": {
        "type": "0x02",
        "from": "0x546b4666786c486eecc146fd04b6dfe1b166735b",
        "to": "0xa6fa4fb5f76172d178d61b04b0ecd319c5d1c0aa",
        "gas": "0x134ff",
        "value": "0x0",
        "data": "0xa9059cbb00000000000000000000000080197f74185e912e1769a0c964851c279dcb16880000000000000000000000000000000000000000000000000000000000000064",
        "nonce": "0x6e",
        "accessList": []
      },
      "additionalContracts": [],
      "isFixedGasLimit": false
    },
    {
      "hash": "0xde5b4bcf706204f0275cb25b1fa3f5aed13b82befba82c3409006f4c98d2bdbf",
      "transactionType": "CALL",
      "contractName": "DeepFiConsumer",
      "contractAddress": "0x80197F74185e912e1769A0C964851c279dCB1688",
      "function": "updateConsumer(bytes)",
      "arguments": [
        "0x636f6e7374207265717565737444617461203d207b22656e7472795f7072696365223a2022222c7d3b20636f6e7374206169547261646572526573706f6e7365203d2061776169742046756e6374696f6e732e6d616b654874747052657175657374287b75726c3a2022687474703a2f2f6574687472616465722e707974686f6e616e7977686572652e636f6d2f74726164696e675f7369676e616c222c206d6574686f643a2022504f5354222c20686561646572733a207b22436f6e74656e742d54797065223a20226170706c69636174696f6e2f6a736f6e222c7d2c646174613a2072657175657374446174612c7d293b206966286169547261646572526573706f6e73652e6572726f7229207b7468726f77206e6577204572726f72284a534f4e2e737472696e67696679286169547261646572526573706f6e736529293b7d20636f6e737420616374696f6e203d206169547261646572526573706f6e73652e646174612e7369676e616c3b20636f6e736f6c652e6c6f6728616374696f6e293b2072657475726e2046756e6374696f6e732e656e636f6465537472696e6728616374696f6e293b"
      ],
      "transaction": {
        "type": "0x02",
        "from": "0x546b4666786c486eecc146fd04b6dfe1b166735b",
        "to": "0x80197f74185e912e1769a0c964851c279dcb1688",
        "gas": "0x5756c",
        "value": "0x0",
        "data": "0xa975b359000000000000000000000000000000000000000000000000000000000000002000000000000000000000000000000000000000000000000000000000000001ac636f6e7374207265717565737444617461203d207b22656e7472795f7072696365223a2022222c7d3b20636f6e7374206169547261646572526573706f6e7365203d2061776169742046756e6374696f6e732e6d616b654874747052657175657374287b75726c3a2022687474703a2f2f6574687472616465722e707974686f6e616e7977686572652e636f6d2f74726164696e675f7369676e616c222c206d6574686f643a2022504f5354222c20686561646572733a207b22436f6e74656e742d54797065223a20226170706c69636174696f6e2f6a736f6e222c7d2c646174613a2072657175657374446174612c7d293b206966286169547261646572526573706f6e73652e6572726f7229207b7468726f77206e6577204572726f72284a534f4e2e737472696e67696679286169547261646572526573706f6e736529293b7d20636f6e737420616374696f6e203d206169547261646572526573706f6e73652e646174612e7369676e616c3b20636f6e736f6c652e6c6f6728616374696f6e293b2072657475726e2046756e6374696f6e732e656e636f6465537472696e6728616374696f6e293b0000000000000000000000000000000000000000",
        "nonce": "0x6f",
        "accessList": []
      },
      "additionalContracts": [],
      "isFixedGasLimit": false
    }
  ],
  "receipts": [
    {
      "transactionHash": "0x6fd9a26a9a53676eb1bcd5b5b2d6c382e3cccb7024762bf47827a0e348d0157e",
      "transactionIndex": "0x1e",
      "blockHash": "0x8156493a578d12ed3abf151b4a41c88ecacff768f161ce2c0b2dafe9920fc928",
      "blockNumber": "0x2969310",
      "from": "0x546b4666786C486EECC146fD04b6dFe1b166735b",
      "to": null,
      "cumulativeGasUsed": "0x59c97e",
      "gasUsed": "0x2189b6",
      "contractAddress": "0x80197F74185e912e1769A0C964851c279dCB1688",
      "logs": [
        {
          "address": "0x0000000000000000000000000000000000001010",
          "topics": [
            "0x4dfe1bbbcf077ddc3e01291eea2d5c70c2b422b415d95645b9adcfd678cb1d63",
            "0x0000000000000000000000000000000000000000000000000000000000001010",
            "0x000000000000000000000000546b4666786c486eecc146fd04b6dfe1b166735b",
            "0x000000000000000000000000cfef2a3dc244ef7d0fb93c45e762d671445c4569"
          ],
          "data": "0x0000000000000000000000000000000000000000000000000007cf043e2e8a56000000000000000000000000000000000000000000000000120d8a41c17d98de0000000000000000000000000000000000000000000000e2cbeeb1a358d81b730000000000000000000000000000000000000000000000001205bb3d834f0e880000000000000000000000000000000000000000000000e2cbf680a79706a5c9",
          "blockHash": "0x8156493a578d12ed3abf151b4a41c88ecacff768f161ce2c0b2dafe9920fc928",
          "blockNumber": "0x2969310",
          "transactionHash": "0x6fd9a26a9a53676eb1bcd5b5b2d6c382e3cccb7024762bf47827a0e348d0157e",
          "transactionIndex": "0x1e",
          "logIndex": "0x49",
          "removed": false
        }
      ],
      "status": "0x1",
      "logsBloom": "0x00000000010000000000000000000000000000000000000000000000000000000000000000000000000000000000000000008000000000000000000000000000000000000000000000000000000000800000000000000040020100000000000000000000000000000000000000000000000000000000000080000000000000000000000000000000000000000000000000000000000000000000000000000000200000000000000000000000000000000000000000000000000000000001004000000000000010000001000000000000000000000000000000100000000000000000000000000000000000000000000000000000000000000000040000100000",
      "type": "0x2",
      "effectiveGasPrice": "0x3b9aca00"
    },
    {
      "transactionHash": "0x699a7349d66be918085bc51f8073afc8448c2a29a2b97d274eb9cecc17b1633b",
      "transactionIndex": "0x1f",
      "blockHash": "0x8156493a578d12ed3abf151b4a41c88ecacff768f161ce2c0b2dafe9920fc928",
      "blockNumber": "0x2969310",
      "from": "0x546b4666786C486EECC146fD04b6dFe1b166735b",
      "to": "0x80197F74185e912e1769A0C964851c279dCB1688",
      "cumulativeGasUsed": "0x5a98da",
      "gasUsed": "0xcf5c",
      "contractAddress": null,
      "logs": [
        {
          "address": "0x0000000000000000000000000000000000001010",
          "topics": [
            "0x4dfe1bbbcf077ddc3e01291eea2d5c70c2b422b415d95645b9adcfd678cb1d63",
            "0x0000000000000000000000000000000000000000000000000000000000001010",
            "0x000000000000000000000000546b4666786c486eecc146fd04b6dfe1b166735b",
            "0x000000000000000000000000cfef2a3dc244ef7d0fb93c45e762d671445c4569"
          ],
          "data": "0x0000000000000000000000000000000000000000000000000000304794ea719c0000000000000000000000000000000000000000000000001205bb3d8157fcde0000000000000000000000000000000000000000000000e2cbf680a79706a5c900000000000000000000000000000000000000000000000012058af5ec6d8b420000000000000000000000000000000000000000000000e2cbf6b0ef2bf11765",
          "blockHash": "0x8156493a578d12ed3abf151b4a41c88ecacff768f161ce2c0b2dafe9920fc928",
          "blockNumber": "0x2969310",
          "transactionHash": "0x699a7349d66be918085bc51f8073afc8448c2a29a2b97d274eb9cecc17b1633b",
          "transactionIndex": "0x1f",
          "logIndex": "0x4a",
          "removed": false
        }
      ],
      "status": "0x1",
      "logsBloom": "0x00000000010000000000000000000000000000000000000000000000000000000000000000000000000000000000000000008000000000000000000000000000000000000000000000000000000000800000000000000040020100000000000000000000000000000000000000000000000000000000000080000000000000000000000000000000000000000000000000000000000000000000000000000000200000000000000000000000000000000000000000000000000000000001004000000000000010000001000000000000000000000000000000100000000000000000000000000000000000000000000000000000000000000000040000100000",
      "type": "0x2",
      "effectiveGasPrice": "0x3b9aca00"
    },
    {
      "transactionHash": "0x605844ccc48db86d841872bf8d8f16631442bd1fa07773f884fc4d8c404b2c5e",
      "transactionIndex": "0x20",
      "blockHash": "0x8156493a578d12ed3abf151b4a41c88ecacff768f161ce2c0b2dafe9920fc928",
      "blockNumber": "0x2969310",
      "from": "0x546b4666786C486EECC146fD04b6dFe1b166735b",
      "to": "0x80197F74185e912e1769A0C964851c279dCB1688",
      "cumulativeGasUsed": "0x5d08e5",
      "gasUsed": "0x2700b",
      "contractAddress": null,
      "logs": [
        {
          "address": "0x0000000000000000000000000000000000001010",
          "topics": [
            "0x4dfe1bbbcf077ddc3e01291eea2d5c70c2b422b415d95645b9adcfd678cb1d63",
            "0x0000000000000000000000000000000000000000000000000000000000001010",
            "0x000000000000000000000000546b4666786c486eecc146fd04b6dfe1b166735b",
            "0x000000000000000000000000cfef2a3dc244ef7d0fb93c45e762d671445c4569"
          ],
          "data": "0x0000000000000000000000000000000000000000000000000000914bdbe21d5b00000000000000000000000000000000000000000000000012058af5ec6164de0000000000000000000000000000000000000000000000e2cbf6b0ef2bf117650000000000000000000000000000000000000000000000001204f9aa107f47830000000000000000000000000000000000000000000000e2cbf7423b07d334c0",
          "blockHash": "0x8156493a578d12ed3abf151b4a41c88ecacff768f161ce2c0b2dafe9920fc928",
          "blockNumber": "0x2969310",
          "transactionHash": "0x605844ccc48db86d841872bf8d8f16631442bd1fa07773f884fc4d8c404b2c5e",
          "transactionIndex": "0x20",
          "logIndex": "0x4b",
          "removed": false
        }
      ],
      "status": "0x1",
      "logsBloom": "0x00000000010000000000000000000000000000000000000000000000000000000000000000000000000000000000000000008000000000000000000000000000000000000000000000000000000000800000000000000040020100000000000000000000000000000000000000000000000000000000000080000000000000000000000000000000000000000000000000000000000000000000000000000000200000000000000000000000000000000000000000000000000000000001004000000000000010000001000000000000000000000000000000100000000000000000000000000000000000000000000000000000000000000000040000100000",
      "type": "0x2",
      "effectiveGasPrice": "0x3b9aca00"
    },
    {
      "transactionHash": "0xa48b935fa4ef95c0377d4304666a4944f608546802d19afc8a1a6bffd42007bd",
      "transactionIndex": "0x21",
      "blockHash": "0x8156493a578d12ed3abf151b4a41c88ecacff768f161ce2c0b2dafe9920fc928",
      "blockNumber": "0x2969310",
      "from": "0x546b4666786C486EECC146fD04b6dFe1b166735b",
      "to": "0x6E2dc0F9DB014aE19888F539E59285D2Ea04244C",
      "cumulativeGasUsed": "0x5e726e",
      "gasUsed": "0x16989",
      "contractAddress": null,
      "logs": [
        {
          "address": "0x6E2dc0F9DB014aE19888F539E59285D2Ea04244C",
          "topics": [
            "0x43dc749a04ac8fb825cbd514f7c0e13f13bc6f2ee66043b76629d51776cff8e0",
            "0x00000000000000000000000000000000000000000000000000000000000003e9"
          ],
          "data": "0x00000000000000000000000080197f74185e912e1769a0c964851c279dcb1688",
          "blockHash": "0x8156493a578d12ed3abf151b4a41c88ecacff768f161ce2c0b2dafe9920fc928",
          "blockNumber": "0x2969310",
          "transactionHash": "0xa48b935fa4ef95c0377d4304666a4944f608546802d19afc8a1a6bffd42007bd",
          "transactionIndex": "0x21",
          "logIndex": "0x4c",
          "removed": false
        },
        {
          "address": "0x0000000000000000000000000000000000001010",
          "topics": [
            "0x4dfe1bbbcf077ddc3e01291eea2d5c70c2b422b415d95645b9adcfd678cb1d63",
            "0x0000000000000000000000000000000000000000000000000000000000001010",
            "0x000000000000000000000000546b4666786c486eecc146fd04b6dfe1b166735b",
            "0x000000000000000000000000cfef2a3dc244ef7d0fb93c45e762d671445c4569"
          ],
          "data": "0x0000000000000000000000000000000000000000000000000000542d2c9aeaf90000000000000000000000000000000000000000000000001204f9aa105ab6de0000000000000000000000000000000000000000000000e2cbf7423b07d334c00000000000000000000000000000000000000000000000001204a57ce3bfcbe50000000000000000000000000000000000000000000000e2cbf79668346e1fb9",
          "blockHash": "0x8156493a578d12ed3abf151b4a41c88ecacff768f161ce2c0b2dafe9920fc928",
          "blockNumber": "0x2969310",
          "transactionHash": "0xa48b935fa4ef95c0377d4304666a4944f608546802d19afc8a1a6bffd42007bd",
          "transactionIndex": "0x21",
          "logIndex": "0x4d",
          "removed": false
        }
      ],
      "status": "0x1",
      "logsBloom": "0x00000000010000000000000000000000000000000000000000000000100000000000000000000000000000000000000000008000000000000000000000000000000000000000000000000010000000800000000000000040020100000000000000000000000080000000000000000000000000000000000080000000020000000000000000000000000080000000000000000000000000000000000000000000200000000000000000000080000000000000000000000000000000000001004000000000000010000001000000000000000000000008000000120000000000000000200000000000000000000000000000000000000000000000040000100000",
      "type": "0x2",
      "effectiveGasPrice": "0x3b9aca00"
    },
    {
      "transactionHash": "0x9e1a246147cd64c20691d8cefd437b35e40a989c19f3853d1227d9c6f471ffe3",
      "transactionIndex": "0x22",
      "blockHash": "0x8156493a578d12ed3abf151b4a41c88ecacff768f161ce2c0b2dafe9920fc928",
      "blockNumber": "0x2969310",
      "from": "0x546b4666786C486EECC146fD04b6dFe1b166735b",
      "to": "0x9999f7Fea5938fD3b1E26A12c3f2fb024e194f97",
      "cumulativeGasUsed": "0x5f6525",
      "gasUsed": "0xf2b7",
      "contractAddress": null,
      "logs": [
        {
          "address": "0x9999f7Fea5938fD3b1E26A12c3f2fb024e194f97",
          "topics": [
            "0xddf252ad1be2c89b69c2b068fc378daa952ba7f163c4a11628f55a4df523b3ef",
            "0x000000000000000000000000546b4666786c486eecc146fd04b6dfe1b166735b",
            "0x00000000000000000000000080197f74185e912e1769a0c964851c279dcb1688"
          ],
          "data": "0x0000000000000000000000000000000000000000000000000000000000000064",
          "blockHash": "0x8156493a578d12ed3abf151b4a41c88ecacff768f161ce2c0b2dafe9920fc928",
          "blockNumber": "0x2969310",
          "transactionHash": "0x9e1a246147cd64c20691d8cefd437b35e40a989c19f3853d1227d9c6f471ffe3",
          "transactionIndex": "0x22",
          "logIndex": "0x4e",
          "removed": false
        },
        {
          "address": "0x0000000000000000000000000000000000001010",
          "topics": [
            "0x4dfe1bbbcf077ddc3e01291eea2d5c70c2b422b415d95645b9adcfd678cb1d63",
            "0x0000000000000000000000000000000000000000000000000000000000001010",
            "0x000000000000000000000000546b4666786c486eecc146fd04b6dfe1b166735b",
            "0x000000000000000000000000cfef2a3dc244ef7d0fb93c45e762d671445c4569"
          ],
          "data": "0x00000000000000000000000000000000000000000000000000003882ee8c2d470000000000000000000000000000000000000000000000001204a57ce3aa9cde0000000000000000000000000000000000000000000000e2cbf79668346e1fb900000000000000000000000000000000000000000000000012046cf9f51e6f970000000000000000000000000000000000000000000000e2cbf7ceeb22fa4d00",
          "blockHash": "0x8156493a578d12ed3abf151b4a41c88ecacff768f161ce2c0b2dafe9920fc928",
          "blockNumber": "0x2969310",
          "transactionHash": "0x9e1a246147cd64c20691d8cefd437b35e40a989c19f3853d1227d9c6f471ffe3",
          "transactionIndex": "0x22",
          "logIndex": "0x4f",
          "removed": false
        }
      ],
      "status": "0x1",
      "logsBloom": "0x00000000010000000000000000000000000000000000000000000000000000000000000000000000000000000000000000008000000000000000000000000000000000000000000000000008000400800000000000000040020100000000000000000000000000000000000000000000000000000000000080000010000000000000000000000080000000000000000000000000000000000000000000000000200000000000000000000000000000000000000000000000000000000001084000001002000010000001000000000000000000000000000000100000000000000000000000000000000000200000080000000000000000000000040000100000",
      "type": "0x2",
      "effectiveGasPrice": "0x3b9aca00"
    },
    {
      "transactionHash": "0x9daf5c12d93eb34d70b868161d20b10b8a0c3633e34a310c537e181212275bd3",
      "transactionIndex": "0x23",
      "blockHash": "0x8156493a578d12ed3abf151b4a41c88ecacff768f161ce2c0b2dafe9920fc928",
      "blockNumber": "0x2969310",
      "from": "0x546b4666786C486EECC146fD04b6dFe1b166735b",
      "to": "0xA6FA4fB5f76172d178d61B04b0ecd319C5d1C0aa",
      "cumulativeGasUsed": "0x6044db",
      "gasUsed": "0xdfb6",
      "contractAddress": null,
      "logs": [
        {
          "address": "0xA6FA4fB5f76172d178d61B04b0ecd319C5d1C0aa",
          "topics": [
            "0xddf252ad1be2c89b69c2b068fc378daa952ba7f163c4a11628f55a4df523b3ef",
            "0x000000000000000000000000546b4666786c486eecc146fd04b6dfe1b166735b",
            "0x00000000000000000000000080197f74185e912e1769a0c964851c279dcb1688"
          ],
          "data": "0x0000000000000000000000000000000000000000000000000000000000000064",
          "blockHash": "0x8156493a578d12ed3abf151b4a41c88ecacff768f161ce2c0b2dafe9920fc928",
          "blockNumber": "0x2969310",
          "transactionHash": "0x9daf5c12d93eb34d70b868161d20b10b8a0c3633e34a310c537e181212275bd3",
          "transactionIndex": "0x23",
          "logIndex": "0x50",
          "removed": false
        },
        {
          "address": "0x0000000000000000000000000000000000001010",
          "topics": [
            "0x4dfe1bbbcf077ddc3e01291eea2d5c70c2b422b415d95645b9adcfd678cb1d63",
            "0x0000000000000000000000000000000000000000000000000000000000001010",
            "0x000000000000000000000000546b4666786c486eecc146fd04b6dfe1b166735b",
            "0x000000000000000000000000cfef2a3dc244ef7d0fb93c45e762d671445c4569"
          ],
          "data": "0x0000000000000000000000000000000000000000000000000000341635f4805600000000000000000000000000000000000000000000000012046cf9f51036de0000000000000000000000000000000000000000000000e2cbf7ceeb22fa4d00000000000000000000000000000000000000000000000000120438e3bf1bb6880000000000000000000000000000000000000000000000e2cbf8030158eecd56",
          "blockHash": "0x8156493a578d12ed3abf151b4a41c88ecacff768f161ce2c0b2dafe9920fc928",
          "blockNumber": "0x2969310",
          "transactionHash": "0x9daf5c12d93eb34d70b868161d20b10b8a0c3633e34a310c537e181212275bd3",
          "transactionIndex": "0x23",
          "logIndex": "0x51",
          "removed": false
        }
      ],
      "status": "0x1",
      "logsBloom": "0x00000000010000000000000000000000000000000000000000000000008000000000000000000000000000000000000000008000000000000000000000000000000000000000000000000008000000800000000000000040020100000000000000000000000000000000000000000000000000000000000080000010000000000000000000000080000000000000000000000000000000000080000000000000200000000000000000000000000000000000000000000000000000000001084000000002000010000001000000000000000000000000000000100000000000000000000000000000000000200000000000000000000000000000040000100000",
      "type": "0x2",
      "effectiveGasPrice": "0x3b9aca00"
    },
    {
      "transactionHash": "0xde5b4bcf706204f0275cb25b1fa3f5aed13b82befba82c3409006f4c98d2bdbf",
      "transactionIndex": "0x24",
      "blockHash": "0x8156493a578d12ed3abf151b4a41c88ecacff768f161ce2c0b2dafe9920fc928",
      "blockNumber": "0x2969310",
      "from": "0x546b4666786C486EECC146fD04b6dFe1b166735b",
      "to": "0x80197F74185e912e1769A0C964851c279dCB1688",
      "cumulativeGasUsed": "0x64005c",
      "gasUsed": "0x3bb81",
      "contractAddress": null,
      "logs": [
        {
          "address": "0x3299b518873b542C57B2ac75a001a623F675810D",
          "topics": [
            "0xbf50768ccf13bd0110ca6d53a9c4f1f3271abdd4c24a56878863ed25b20598ff",
            "0x33d744d388d48817194b0dc206b0cee94f171b82c0cb94a500d19e78daaaa4aa",
            "0x00000000000000000000000080197f74185e912e1769a0c964851c279dcb1688"
          ],
          "data": "0x000000000000000000000000546b4666786c486eecc146fd04b6dfe1b166735b00000000000000000000000000000000000000000000000000000000000003e9000000000000000000000000546b4666786c486eecc146fd04b6dfe1b166735b00000000000000000000000000000000000000000000000000000000000002400000000000000000000000000000000000000000000000000000000000000001000000000000000000000000000000000000000000000000000000000000000000000000000000000000000000000000000000000000000000000000000493e033d744d388d48817194b0dc206b0cee94f171b82c0cb94a500d19e78daaaa4aa0000000000000000000000003299b518873b542c57b2ac75a001a623f675810d00000000000000000000000000000000000000000000000002cf710d6f53fb5000000000000000000000000080197f74185e912e1769a0c964851c279dcb168800000000000000000000000000000000000000000000000000000000000003e900000000000000000000000000000000000000000000000000000000000493e000000000000000000000000000000000000000000000000002c68af0bb14000000000000000000000000000000000000000000000000000000000000000000000000000000000000000000000000000000000000000000000000000000019a280000000000000000000000000000000000000000000000000000000000009c40000000000000000000000000000000000000000000000000000000006576492100000000000000000000000000000000000000000000000000000000000002126c636f64654c6f636174696f6ec258200000000000000000000000000000000000000000000000000000000000000000686c616e6775616765c25820000000000000000000000000000000000000000000000000000000000000000066736f757263657901ac636f6e7374207265717565737444617461203d207b22656e7472795f7072696365223a2022222c7d3b20636f6e7374206169547261646572526573706f6e7365203d2061776169742046756e6374696f6e732e6d616b654874747052657175657374287b75726c3a2022687474703a2f2f6574687472616465722e707974686f6e616e7977686572652e636f6d2f74726164696e675f7369676e616c222c206d6574686f643a2022504f5354222c20686561646572733a207b22436f6e74656e742d54797065223a20226170706c69636174696f6e2f6a736f6e222c7d2c646174613a2072657175657374446174612c7d293b206966286169547261646572526573706f6e73652e6572726f7229207b7468726f77206e6577204572726f72284a534f4e2e737472696e67696679286169547261646572526573706f6e736529293b7d20636f6e737420616374696f6e203d206169547261646572526573706f6e73652e646174612e7369676e616c3b20636f6e736f6c652e6c6f6728616374696f6e293b2072657475726e2046756e6374696f6e732e656e636f6465537472696e6728616374696f6e293b0000000000000000000000000000",
          "blockHash": "0x8156493a578d12ed3abf151b4a41c88ecacff768f161ce2c0b2dafe9920fc928",
          "blockNumber": "0x2969310",
          "transactionHash": "0xde5b4bcf706204f0275cb25b1fa3f5aed13b82befba82c3409006f4c98d2bdbf",
          "transactionIndex": "0x24",
          "logIndex": "0x52",
          "removed": false
        },
        {
          "address": "0x6E2dc0F9DB014aE19888F539E59285D2Ea04244C",
          "topics": [
            "0xf67aec45c9a7ede407974a3e0c3a743dffeab99ee3f2d4c9a8144c2ebf2c7ec9",
            "0x33d744d388d48817194b0dc206b0cee94f171b82c0cb94a500d19e78daaaa4aa",
            "0x66756e2d706f6c79676f6e2d6d756d6261692d31000000000000000000000000",
            "0x00000000000000000000000000000000000000000000000000000000000003e9"
          ],
          "data": "0x000000000000000000000000546b4666786c486eecc146fd04b6dfe1b166735b00000000000000000000000080197f74185e912e1769a0c964851c279dcb1688000000000000000000000000546b4666786c486eecc146fd04b6dfe1b166735b00000000000000000000000000000000000000000000000000000000000000e0000000000000000000000000000000000000000000000000000000000000000100000000000000000000000000000000000000000000000000000000000493e000000000000000000000000000000000000000000000000002cf710d6f53fb5000000000000000000000000000000000000000000000000000000000000002126c636f64654c6f636174696f6ec258200000000000000000000000000000000000000000000000000000000000000000686c616e6775616765c25820000000000000000000000000000000000000000000000000000000000000000066736f757263657901ac636f6e7374207265717565737444617461203d207b22656e7472795f7072696365223a2022222c7d3b20636f6e7374206169547261646572526573706f6e7365203d2061776169742046756e6374696f6e732e6d616b654874747052657175657374287b75726c3a2022687474703a2f2f6574687472616465722e707974686f6e616e7977686572652e636f6d2f74726164696e675f7369676e616c222c206d6574686f643a2022504f5354222c20686561646572733a207b22436f6e74656e742d54797065223a20226170706c69636174696f6e2f6a736f6e222c7d2c646174613a2072657175657374446174612c7d293b206966286169547261646572526573706f6e73652e6572726f7229207b7468726f77206e6577204572726f72284a534f4e2e737472696e67696679286169547261646572526573706f6e736529293b7d20636f6e737420616374696f6e203d206169547261646572526573706f6e73652e646174612e7369676e616c3b20636f6e736f6c652e6c6f6728616374696f6e293b2072657475726e2046756e6374696f6e732e656e636f6465537472696e6728616374696f6e293b0000000000000000000000000000",
          "blockHash": "0x8156493a578d12ed3abf151b4a41c88ecacff768f161ce2c0b2dafe9920fc928",
          "blockNumber": "0x2969310",
          "transactionHash": "0xde5b4bcf706204f0275cb25b1fa3f5aed13b82befba82c3409006f4c98d2bdbf",
          "transactionIndex": "0x24",
          "logIndex": "0x53",
          "removed": false
        },
        {
          "address": "0x80197F74185e912e1769A0C964851c279dCB1688",
          "topics": [
            "0x1131472297a800fee664d1d89cfa8f7676ff07189ecc53f80bbb5f4969099db8",
            "0x33d744d388d48817194b0dc206b0cee94f171b82c0cb94a500d19e78daaaa4aa"
          ],
          "data": "0x",
          "blockHash": "0x8156493a578d12ed3abf151b4a41c88ecacff768f161ce2c0b2dafe9920fc928",
          "blockNumber": "0x2969310",
          "transactionHash": "0xde5b4bcf706204f0275cb25b1fa3f5aed13b82befba82c3409006f4c98d2bdbf",
          "transactionIndex": "0x24",
          "logIndex": "0x54",
          "removed": false
        },
        {
          "address": "0x0000000000000000000000000000000000001010",
          "topics": [
            "0x4dfe1bbbcf077ddc3e01291eea2d5c70c2b422b415d95645b9adcfd678cb1d63",
            "0x0000000000000000000000000000000000000000000000000000000000001010",
            "0x000000000000000000000000546b4666786c486eecc146fd04b6dfe1b166735b",
            "0x000000000000000000000000cfef2a3dc244ef7d0fb93c45e762d671445c4569"
          ],
          "data": "0x0000000000000000000000000000000000000000000000000000de787855cd71000000000000000000000000000000000000000000000000120438e3bf0e9ade0000000000000000000000000000000000000000000000e2cbf8030158eecd5600000000000000000000000000000000000000000000000012035a6b46b8cd6d0000000000000000000000000000000000000000000000e2cbf8e179d1449ac7",
          "blockHash": "0x8156493a578d12ed3abf151b4a41c88ecacff768f161ce2c0b2dafe9920fc928",
          "blockNumber": "0x2969310",
          "transactionHash": "0xde5b4bcf706204f0275cb25b1fa3f5aed13b82befba82c3409006f4c98d2bdbf",
          "transactionIndex": "0x24",
          "logIndex": "0x55",
          "removed": false
        }
      ],
      "status": "0x1",
      "logsBloom": "0x00000000010000000000000000000000000000000004004000000000100004000000000000000000000000100000000000008000000000000000000000000000100000000000000000000010000000800800000000000040020100000000000000000010000000000000000000000000000000008000000080000010020000000000000000000080000080000000000000000000000000000000001000000000200000000000000800000000000000000000000000000000000000400001084040000200000010000081000800000000000000000008022000100400000000000000200000000000000000200000000000000000000000000000040000700000",
      "type": "0x2",
      "effectiveGasPrice": "0x3b9aca00"
    }
  ],
  "libraries": [],
  "pending": [],
  "returns": {},
  "timestamp": 1702250620,
  "chain": 80001,
  "multi": false,
  "commit": "0ebc2c9"
}