{
  "transactions": [
    {
      "hash": "0x31d7a58f4c0df8f686b985cfb6ad092b7ab5f7e76439d81c512c3c44f84694bc",
      "transactionType": "CREATE",
      "contractName": "DeepFiConsumer",
      "contractAddress": "0xCB6d1C1e19a73AB55d798F9004A3F5AA4Dac2Dd2",
      "function": null,
      "arguments": [
        "0x6E2dc0F9DB014aE19888F539E59285D2Ea04244C",
        "0x66756e2d706f6c79676f6e2d6d756d6261692d31000000000000000000000000",
        "0xE592427A0AEce92De3Edee1F18E0157C05861564"
      ],
      "transaction": {
        "type": "0x02",
        "from": "0x546b4666786c486eecc146fd04b6dfe1b166735b",
        "gas": "0x2cecec",
        "value": "0x0",
        "data": "0x60e06040523480156200001157600080fd5b5060405162002952380380620029528339810160408190526200003491620001aa565b6001600160a01b038316608052803380600081620000995760405162461bcd60e51b815260206004820152601860248201527f43616e6e6f7420736574206f776e657220746f207a65726f000000000000000060448201526064015b60405180910390fd5b600080546001600160a01b0319166001600160a01b0384811691909117909155811615620000cc57620000cc81620000e6565b5050506001600160a01b031660a0525060025550620001f2565b336001600160a01b03821603620001405760405162461bcd60e51b815260206004820152601760248201527f43616e6e6f74207472616e7366657220746f2073656c66000000000000000000604482015260640162000090565b600180546001600160a01b0319166001600160a01b0383811691821790925560008054604051929316917fed8889f560326eb138920d842192f0eb3dd22b4f139c87a2c57538e05bae12789190a350565b6001600160a01b0381168114620001a757600080fd5b50565b600080600060608486031215620001c057600080fd5b8351620001cd8162000191565b602085015160408601519194509250620001e78162000191565b809150509250925092565b60805160a05160c0516127146200023e600039600081816104ed015261092d0152600081816105c7015281816113ed015261157b015260008181610614015261107801526127146000f3fe6080604052600436106101a05760003560e01c806379ba5097116100ec578063a452b3121161008a578063ad5c464811610064578063ad5c464814610577578063b1e217491461059f578063c31c9c07146105b5578063f2fde38b146105e957600080fd5b8063a452b3121461050f578063a975b3591461052f578063abaf8edb1461054f57600080fd5b80638da5cb5b116100c65780638da5cb5b1461047f5780638dbe7b9d1461049d57806393e33c78146104b3578063947a36fb146104db57600080fd5b806379ba50971461041a5780638009b7bd1461042f57806389a302711461045757600080fd5b80633f3b3b271161015957806356ef9e6d1161013357806356ef9e6d146102f757806363db79c51461039c5780636e04ff0d146103cc57806378ca5de7146103fa57600080fd5b80633f3b3b271461029f5780634585e33b146102c35780634b0795a8146102e257600080fd5b8063089fe6aa146101ac5780630ca76175146101db5780631b6b6d23146101fd578063231c16191461023d57806327be5cd71461025d5780633944ea3a1461027d57600080fd5b366101a757005b600080fd5b3480156101b857600080fd5b506101c2610bb881565b60405162ffffff90911681526020015b60405180910390f35b3480156101e757600080fd5b506101fb6101f6366004611be3565b610609565b005b34801561020957600080fd5b5061022573326c977e6efc84e512bb9c30f76e30c160ed06fb81565b6040516001600160a01b0390911681526020016101d2565b34801561024957600080fd5b506101fb610258366004611d1a565b61068d565b34801561026957600080fd5b506101fb610278366004611e10565b6107e0565b34801561028957600080fd5b5061029261080a565b6040516101d29190611ec1565b3480156102ab57600080fd5b506102b560065481565b6040519081526020016101d2565b3480156102cf57600080fd5b506101fb6102de366004611ed4565b5050565b3480156102ee57600080fd5b50610292610898565b34801561030357600080fd5b50600d54600e54600f54601054601154601254601354610349966001600160a01b039081169681811696600160a01b90910462ffffff1695908216949093909290911688565b604080516001600160a01b03998a168152978916602089015262ffffff909616958701959095529286166060860152608085019190915260a084015260c08301529190911660e0820152610100016101d2565b3480156103a857600080fd5b506103bc6103b7366004611f15565b6108a5565b60405190151581526020016101d2565b3480156103d857600080fd5b506103ec6103e7366004611ed4565b610927565b6040516101d2929190611f78565b34801561040657600080fd5b506101fb610415366004611f9b565b610964565b34801561042657600080fd5b506101fb610971565b34801561043b57600080fd5b50610225730715a7794a1dc8e42615f059dd6e406a6594651a81565b34801561046357600080fd5b50610225739999f7fea5938fd3b1e26a12c3f2fb024e194f9781565b34801561048b57600080fd5b506000546001600160a01b0316610225565b3480156104a957600080fd5b506102b560025481565b3480156104bf57600080fd5b50610225731c2252aeed50e0c9b64bdff2735ee3c932f5c40881565b3480156104e757600080fd5b506102b57f000000000000000000000000000000000000000000000000000000000000000081565b34801561051b57600080fd5b506101fb61052a366004611fb4565b610a20565b34801561053b57600080fd5b506101fb61054a366004611ed4565b610a5a565b34801561055b57600080fd5b506102257312162c3e810393dec01362abf156d7ecf615952881565b34801561058357600080fd5b5061022573a6fa4fb5f76172d178d61b04b0ecd319c5d1c0aa81565b3480156105ab57600080fd5b506102b560035481565b3480156105c157600080fd5b506102257f000000000000000000000000000000000000000000000000000000000000000081565b3480156105f557600080fd5b506101fb61060436600461204d565b610a6b565b336001600160a01b037f000000000000000000000000000000000000000000000000000000000000000016146106525760405163c6829f8360e01b815260040160405180910390fd5b61065d838383610a7f565b60405183907f85e1543bf2f84fe80c6badbce3648c8539ad1df4d2b3d822938ca0538be727e690600090a2505050565b610695610c74565b6106d66040805160e0810190915280600081526020016000815260200160008152602001606081526020016060815260200160608152602001606081525090565b61071d6000808e8e8080601f01602080910402602001604051908101604052809392919081815260200183838082843760009201919091525087959493925050610cc99050565b602081018a600281111561073357610733612076565b9081600281111561074657610746612076565b8152505088888080601f0160208091040260200160405190810160405280939291908181526020018383808284376000920191909152505050506080820152851561079f5761079f61079887896120af565b8290610d47565b83156107b9576107b96107b2858761213b565b8290610d71565b6107cf6107c582610d9b565b8484600254611073565b600355505050505050505050505050565b6107e8610c74565b600a6107f584868361222a565b50600b61080382848361222a565b5050505050565b60048054610817906121a2565b80601f0160208091040260200160405190810160405280929190818152602001828054610843906121a2565b80156108905780601f1061086557610100808354040283529160200191610890565b820191906000526020600020905b81548152906001019060200180831161087357829003601f168201915b505050505081565b60058054610817906121a2565b6000805b835181101561091b578281815181106108c4576108c46122e9565b602001015160f81c60f81b6001600160f81b0319168482815181106108eb576108eb6122e9565b01602001516001600160f81b03191614610909576000915050610921565b8061091381612315565b9150506108a9565b50600190505b92915050565b600060607f00000000000000000000000000000000000000000000000000000000000000006006544261095a919061232e565b1191509250929050565b61096c610c74565b600255565b6001546001600160a01b031633146109c95760405162461bcd60e51b815260206004820152601660248201527526bab9ba10313290383937b837b9b2b21037bbb732b960511b60448201526064015b60405180910390fd5b60008054336001600160a01b0319808316821784556001805490911690556040516001600160a01b0390921692909183917f8be0079c531659141344cd1fd0a4f28419497f9722a3daafe3b4186f6b6457e091a350565b610a28610c74565b6007610a3586888361222a565b506008610a4384868361222a565b506009610a5182848361222a565b50505050505050565b6102de82826103e9620493e0611145565b610a73610c74565b610a7c816111f2565b50565b6004610a8b8382612341565b506005610a988282612341565b50600060405180606001604052806024815260200161269760249139905060006040518060600160405280602481526020016126bb602491399050610add84836108a5565b8015610aee5750610aee84826108a5565b15610b9657610afe84600161129b565b8051600d80546001600160a01b03199081166001600160a01b03938416179091556020830151600e805460408601519285166001600160b81b031990911617600160a01b62ffffff909316929092029190911790556060830151600f80548316918416919091179055608083015160105560a083015160115560c083015160125560e090920151601380549093169116179055610c35565b610ba184600061129b565b8051600d80546001600160a01b03199081166001600160a01b03938416179091556020830151600e805460408601519285166001600160b81b031990911617600160a01b62ffffff909316929092029190911790556060830151600f80548316918416919091179055608083015160105560a083015160115560c083015160125560e0909201516013805490931691161790555b7fcc34b93149e0ab409924a12dba368b93c72852fe310a20a30f742858024b5117600d604051610c659190612400565b60405180910390a15050505050565b6000546001600160a01b03163314610cc75760405162461bcd60e51b815260206004820152601660248201527527b7363c9031b0b63630b1363290313c9037bbb732b960511b60448201526064016109c0565b565b8051600003610ceb576040516322ce3edd60e01b815260040160405180910390fd5b83836002811115610cfe57610cfe612076565b90816002811115610d1157610d11612076565b90525060408401828015610d2757610d27612076565b90818015610d3757610d37612076565b9052506060909301929092525050565b8051600003610d695760405163fe936cb760e01b815260040160405180910390fd5b60a090910152565b8051600003610d935760405163fe936cb760e01b815260040160405180910390fd5b60c090910152565b60606000610daa61010061167f565b9050610de36040518060400160405280600c81526020016b31b7b232a637b1b0ba34b7b760a11b815250826116a090919063ffffffff16565b8251610e01906002811115610dfa57610dfa612076565b82906116be565b6040805180820190915260088152676c616e677561676560c01b6020820152610e2b9082906116a0565b6040830151610e42908015610dfa57610dfa612076565b604080518082019091526006815265736f7572636560d01b6020820152610e6a9082906116a0565b6060830151610e7a9082906116a0565b60a08301515115610f0e576040805180820190915260048152636172677360e01b6020820152610eab9082906116a0565b610eb4816116f7565b60005b8360a0015151811015610f0457610ef48460a001518281518110610edd57610edd6122e9565b6020026020010151836116a090919063ffffffff16565b610efd81612315565b9050610eb7565b50610f0e8161171b565b60808301515115610fd257600083602001516002811115610f3157610f31612076565b03610f4f5760405163a80d31f760e01b815260040160405180910390fd5b60408051808201909152600f81526e39b2b1b932ba39a637b1b0ba34b7b760891b6020820152610f809082906116a0565b610f9983602001516002811115610dfa57610dfa612076565b6040805180820190915260078152667365637265747360c81b6020820152610fc29082906116a0565b6080830151610fd2908290611739565b60c0830151511561106b5760408051808201909152600981526862797465734172677360b81b60208201526110089082906116a0565b611011816116f7565b60005b8360c0015151811015611061576110518460c00151828151811061103a5761103a6122e9565b60200260200101518361173990919063ffffffff16565b61105a81612315565b9050611014565b5061106b8161171b565b515192915050565b6000807f00000000000000000000000000000000000000000000000000000000000000006001600160a01b031663461d27628688600188886040518663ffffffff1660e01b81526004016110cb95949392919061246c565b6020604051808303816000875af11580156110ea573d6000803e3d6000fd5b505050506040513d601f19601f8201168201806040525081019061110e91906124b5565b60405190915081907f1131472297a800fee664d1d89cfa8f7676ff07189ecc53f80bbb5f4969099db890600090a295945050505050565b61114d610c74565b61118e6040805160e0810190915280600081526020016000815260200160008152602001606081526020016060815260200160608152602001606081525090565b6111d560008087878080601f01602080910402602001604051908101604052809392919081815260200183838082843760009201919091525087959493925050610cc99050565b600060208201526111e86107c582610d9b565b6003555050505050565b336001600160a01b0382160361124a5760405162461bcd60e51b815260206004820152601760248201527f43616e6e6f74207472616e7366657220746f2073656c6600000000000000000060448201526064016109c0565b600180546001600160a01b0319166001600160a01b0383811691821790925560008054604051929316917fed8889f560326eb138920d842192f0eb3dd22b4f139c87a2c57538e05bae12789190a350565b6040805161010081018252600080825260208201819052918101829052606081018290526080810182905260a0810182905260c0810182905260e08101919091526000730715a7794a1dc8e42615f059dd6e406a6594651a6001600160a01b031663feaf968c6040518163ffffffff1660e01b815260040160a060405180830381865afa158015611330573d6000803e3d6000fd5b505050506040513d601f19601f8201168201806040525081019061135491906124e8565b50505091505082156114ee576040516370a0823160e01b8152306004820152600090739999f7fea5938fd3b1e26a12c3f2fb024e194f97906370a0823190602401602060405180830381865afa1580156113b2573d6000803e3d6000fd5b505050506040513d601f19601f820116820180604052508101906113d691906124b5565b60405163095ea7b360e01b81526001600160a01b037f000000000000000000000000000000000000000000000000000000000000000016600482015260248101829052909150739999f7fea5938fd3b1e26a12c3f2fb024e194f979063095ea7b3906044016020604051808303816000875af115801561145a573d6000803e3d6000fd5b505050506040513d601f19601f8201168201806040525081019061147e9190612538565b506040805161010081018252739999f7fea5938fd3b1e26a12c3f2fb024e194f97815273a6fa4fb5f76172d178d61b04b0ecd319c5d1c0aa6020820152610bb89181019190915233606082015242608082015260a081019190915260c08101829052600060e08201529150611678565b6040516370a0823160e01b815230600482015260009073a6fa4fb5f76172d178d61b04b0ecd319c5d1c0aa906370a0823190602401602060405180830381865afa158015611540573d6000803e3d6000fd5b505050506040513d601f19601f8201168201806040525081019061156491906124b5565b60405163095ea7b360e01b81526001600160a01b037f00000000000000000000000000000000000000000000000000000000000000001660048201526024810182905290915073a6fa4fb5f76172d178d61b04b0ecd319c5d1c0aa9063095ea7b3906044016020604051808303816000875af11580156115e8573d6000803e3d6000fd5b505050506040513d601f19601f8201168201806040525081019061160c9190612538565b50604080516101008101825273a6fa4fb5f76172d178d61b04b0ecd319c5d1c0aa8152739999f7fea5938fd3b1e26a12c3f2fb024e194f976020820152610bb89181019190915233606082015242608082015260a081019190915260c08101829052600060e082015291505b5092915050565b611687611af1565b80516116939083611746565b5060006020820152919050565b6116ad82600383516117bd565b81516116b990826118dc565b505050565b81516116cb9060c2611904565b506102de82826040516020016116e391815260200190565b604051602081830303815290604052611739565b61170281600461196d565b600181602001818151611715919061255a565b90525050565b61172681600761196d565b600181602001818151611715919061232e565b6116ad82600283516117bd565b60408051808201909152606081526000602082015261176660208361256d565b1561178e5761177660208361256d565b61178190602061232e565b61178b908361255a565b91505b6020808401839052604051808552600081529081840101818110156117b257600080fd5b604052509192915050565b6017816001600160401b0316116117e95782516117e39060e0600585901b168317611904565b50505050565b60ff816001600160401b031611611829578251611811906018611fe0600586901b1617611904565b5082516117e3906001600160401b0383166001611984565b61ffff816001600160401b03161161186a578251611852906019611fe0600586901b1617611904565b5082516117e3906001600160401b0383166002611984565b63ffffffff816001600160401b0316116118ad57825161189590601a611fe0600586901b1617611904565b5082516117e3906001600160401b0383166004611984565b82516118c490601b611fe0600586901b1617611904565b5082516117e3906001600160401b0383166008611984565b6040805180820190915260608152600060208201526118fd83838451611a09565b9392505050565b604080518082019091526060815260006020820152825151600061192982600161255a565b90508460200151821061194a5761194a8561194583600261258f565b611ada565b8451602083820101858153508051821115611963578181525b5093949350505050565b81516116b990601f611fe0600585901b1617611904565b60408051808201909152606081526000602082015283515160006119a8828561255a565b905085602001518111156119c5576119c58661194583600261258f565b600060016119d58661010061268a565b6119df919061232e565b905086518281018783198251161781525080518311156119fd578281525b50959695505050505050565b6040805180820190915260608152600060208201528251821115611a2c57600080fd5b8351516000611a3b848361255a565b90508560200151811115611a5857611a588661194583600261258f565b855180518382016020019160009180851115611a72578482525b505050602086015b60208610611ab25780518252611a9160208361255a565b9150611a9e60208261255a565b9050611aab60208761232e565b9550611a7a565b51815160001960208890036101000a0190811690199190911617905250849150509392505050565b8151611ae68383611746565b506117e383826118dc565b6040518060400160405280611b19604051806040016040528060608152602001600081525090565b8152602001600081525090565b634e487b7160e01b600052604160045260246000fd5b604051601f8201601f191681016001600160401b0381118282101715611b6457611b64611b26565b604052919050565b60006001600160401b03831115611b8557611b85611b26565b611b98601f8401601f1916602001611b3c565b9050828152838383011115611bac57600080fd5b828260208301376000602084830101529392505050565b600082601f830112611bd457600080fd5b6118fd83833560208501611b6c565b600080600060608486031215611bf857600080fd5b8335925060208401356001600160401b0380821115611c1657600080fd5b611c2287838801611bc3565b93506040860135915080821115611c3857600080fd5b50611c4586828701611bc3565b9150509250925092565b60008083601f840112611c6157600080fd5b5081356001600160401b03811115611c7857600080fd5b602083019150836020828501011115611c9057600080fd5b9250929050565b803560038110611ca657600080fd5b919050565b60008083601f840112611cbd57600080fd5b5081356001600160401b03811115611cd457600080fd5b6020830191508360208260051b8501011115611c9057600080fd5b80356001600160401b0381168114611ca657600080fd5b803563ffffffff81168114611ca657600080fd5b600080600080600080600080600080600060e08c8e031215611d3b57600080fd5b6001600160401b03808d351115611d5157600080fd5b611d5e8e8e358f01611c4f565b909c509a50611d6f60208e01611c97565b99508060408e01351115611d8257600080fd5b611d928e60408f01358f01611c4f565b909950975060608d0135811015611da857600080fd5b611db88e60608f01358f01611cab565b909750955060808d0135811015611dce57600080fd5b50611ddf8d60808e01358e01611cab565b9094509250611df060a08d01611cef565b9150611dfe60c08d01611d06565b90509295989b509295989b9093969950565b60008060008060408587031215611e2657600080fd5b84356001600160401b0380821115611e3d57600080fd5b611e4988838901611c4f565b90965094506020870135915080821115611e6257600080fd5b50611e6f87828801611c4f565b95989497509550505050565b6000815180845260005b81811015611ea157602081850181015186830182015201611e85565b506000602082860101526020601f19601f83011685010191505092915050565b6020815260006118fd6020830184611e7b565b60008060208385031215611ee757600080fd5b82356001600160401b03811115611efd57600080fd5b611f0985828601611c4f565b90969095509350505050565b60008060408385031215611f2857600080fd5b82356001600160401b0380821115611f3f57600080fd5b611f4b86838701611bc3565b93506020850135915080821115611f6157600080fd5b50611f6e85828601611bc3565b9150509250929050565b8215158152604060208201526000611f936040830184611e7b565b949350505050565b600060208284031215611fad57600080fd5b5035919050565b60008060008060008060608789031215611fcd57600080fd5b86356001600160401b0380821115611fe457600080fd5b611ff08a838b01611c4f565b9098509650602089013591508082111561200957600080fd5b6120158a838b01611c4f565b9096509450604089013591508082111561202e57600080fd5b5061203b89828a01611c4f565b979a9699509497509295939492505050565b60006020828403121561205f57600080fd5b81356001600160a01b03811681146118fd57600080fd5b634e487b7160e01b600052602160045260246000fd5b60006001600160401b038211156120a5576120a5611b26565b5060051b60200190565b60006120c26120bd8461208c565b611b3c565b80848252602080830192508560051b8501368111156120e057600080fd5b855b8181101561212f5780356001600160401b038111156121015760008081fd5b870136601f8201126121135760008081fd5b612121368235868401611b6c565b8652509382019382016120e2565b50919695505050505050565b60006121496120bd8461208c565b80848252602080830192508560051b85013681111561216757600080fd5b855b8181101561212f5780356001600160401b038111156121885760008081fd5b61219436828a01611bc3565b865250938201938201612169565b600181811c908216806121b657607f821691505b6020821081036121d657634e487b7160e01b600052602260045260246000fd5b50919050565b601f8211156116b957600081815260208120601f850160051c810160208610156122035750805b601f850160051c820191505b818110156122225782815560010161220f565b505050505050565b6001600160401b0383111561224157612241611b26565b6122558361224f83546121a2565b836121dc565b6000601f84116001811461228957600085156122715750838201355b600019600387901b1c1916600186901b178355610803565b600083815260209020601f19861690835b828110156122ba578685013582556020948501946001909201910161229a565b50868210156122d75760001960f88860031b161c19848701351681555b505060018560011b0183555050505050565b634e487b7160e01b600052603260045260246000fd5b634e487b7160e01b600052601160045260246000fd5b600060018201612327576123276122ff565b5060010190565b81810381811115610921576109216122ff565b81516001600160401b0381111561235a5761235a611b26565b61236e8161236884546121a2565b846121dc565b602080601f8311600181146123a3576000841561238b5750858301515b600019600386901b1c1916600185901b178555612222565b600085815260208120601f198616915b828110156123d2578886015182559484019460019091019084016123b3565b50858210156123f05787850151600019600388901b60f8161c191681555b5050505050600190811b01905550565b81546001600160a01b0390811682526001830154808216602084015260a090811c62ffffff16604084015260028401548216606084015260038401546080840152600484015490830152600583015460c083015260068301541660e08201819052610100820190611678565b6001600160401b038616815260a06020820152600061248e60a0830187611e7b565b61ffff9590951660408301525063ffffffff92909216606083015260809091015292915050565b6000602082840312156124c757600080fd5b5051919050565b805169ffffffffffffffffffff81168114611ca657600080fd5b600080600080600060a0868803121561250057600080fd5b612509866124ce565b945060208601519350604086015192506060860151915061252c608087016124ce565b90509295509295909350565b60006020828403121561254a57600080fd5b815180151581146118fd57600080fd5b80820180821115610921576109216122ff565b60008261258a57634e487b7160e01b600052601260045260246000fd5b500690565b8082028115828204841417610921576109216122ff565b600181815b808511156125e15781600019048211156125c7576125c76122ff565b808516156125d457918102915b93841c93908002906125ab565b509250929050565b6000826125f857506001610921565b8161260557506000610921565b816001811461261b576002811461262557612641565b6001915050610921565b60ff841115612636576126366122ff565b50506001821b610921565b5060208310610133831016604e8410600b8410161715612664575081810a610921565b61266e83836125a6565b8060001904821115612682576126826122ff565b029392505050565b60006118fd83836125e956fe307837323631366536373635356637333638366637323734356636353665373437323739307837333737363936653637356637333638366637323734356636353665373437323739a264697066735822122090158d15388685e91fe545afc909e5c3d7178ba934c0398214df9bdf5cf6dc3f64736f6c634300081500330000000000000000000000006e2dc0f9db014ae19888f539e59285d2ea04244c66756e2d706f6c79676f6e2d6d756d6261692d31000000000000000000000000000000000000000000000000e592427a0aece92de3edee1f18e0157c05861564",
        "nonce": "0x72",
        "accessList": []
      },
      "additionalContracts": [],
      "isFixedGasLimit": false
    },
    {
      "hash": "0x575d910b4de7ec89cd6eb673ad8d4c0cfb2878d4c2c597865a0f15a3942b23a6",
      "transactionType": "CALL",
      "contractName": "DeepFiConsumer",
      "contractAddress": "0xCB6d1C1e19a73AB55d798F9004A3F5AA4Dac2Dd2",
      "function": "setSourceRefs(string,bytes,string)",
      "arguments": [
        "",
        "0x",
        "{\"entry_price\": \"\"}"
      ],
      "transaction": {
        "type": "0x02",
        "from": "0x546b4666786c486eecc146fd04b6dfe1b166735b",
        "to": "0xcb6d1c1e19a73ab55d798f9004a3f5aa4dac2dd2",
        "gas": "0x11e69",
        "value": "0x0",
        "data": "0xa452b3120000000000000000000000000000000000000000000000000000000000000060000000000000000000000000000000000000000000000000000000000000008000000000000000000000000000000000000000000000000000000000000000a00000000000000000000000000000000000000000000000000000000000000000000000000000000000000000000000000000000000000000000000000000000000000000000000000000000000000000000000000000000000000000000000137b22656e7472795f7072696365223a2022227d00000000000000000000000000",
        "nonce": "0x73",
        "accessList": []
      },
      "additionalContracts": [],
      "isFixedGasLimit": false
    },
    {
      "hash": "0x3a5ff0c195187351fc16b375353e9f853e5651c54b1bfa2e3bbdc6cb4f8beef2",
      "transactionType": "CALL",
      "contractName": "DeepFiConsumer",
      "contractAddress": "0xCB6d1C1e19a73AB55d798F9004A3F5AA4Dac2Dd2",
      "function": "setExits(bytes,bytes)",
      "arguments": [
        "0x307837333737363936653637356637333638366637323734356636353665373437323739",
        "0x307837323631366536373635356637333638366637323734356636353665373437323739"
      ],
      "transaction": {
        "type": "0x02",
        "from": "0x546b4666786c486eecc146fd04b6dfe1b166735b",
        "to": "0xcb6d1c1e19a73ab55d798f9004a3f5aa4dac2dd2",
        "gas": "0x390a9",
        "value": "0x0",
        "data": "0x27be5cd7000000000000000000000000000000000000000000000000000000000000004000000000000000000000000000000000000000000000000000000000000000a0000000000000000000000000000000000000000000000000000000000000002430783733373736393665363735663733363836663732373435663635366537343732373900000000000000000000000000000000000000000000000000000000000000000000000000000000000000000000000000000000000000000000002430783732363136653637363535663733363836663732373435663635366537343732373900000000000000000000000000000000000000000000000000000000",
        "nonce": "0x74",
        "accessList": []
      },
      "additionalContracts": [],
      "isFixedGasLimit": false
    },
    {
      "hash": "0x602c05238e7f3feea338133afeb8723994c504c8d18872846f1e5a9c7335770a",
      "transactionType": "CALL",
      "contractName": null,
      "contractAddress": "0x6E2dc0F9DB014aE19888F539E59285D2Ea04244C",
      "function": null,
      "arguments": null,
      "transaction": {
        "type": "0x02",
        "from": "0x546b4666786c486eecc146fd04b6dfe1b166735b",
        "to": "0x6e2dc0f9db014ae19888f539e59285d2ea04244c",
        "gas": "0x210be",
        "value": "0x0",
        "data": "0x7341c10c00000000000000000000000000000000000000000000000000000000000003e9000000000000000000000000cb6d1c1e19a73ab55d798f9004a3f5aa4dac2dd2",
        "nonce": "0x75",
        "accessList": []
      },
      "additionalContracts": [],
      "isFixedGasLimit": false
    },
    {
      "hash": "0xb06449b6c7618dfd845fe0a786bac38b1bf6aa987d877e20d5e62a39d75ffdfa",
      "transactionType": "CALL",
      "contractName": null,
      "contractAddress": "0x9999f7Fea5938fD3b1E26A12c3f2fb024e194f97",
      "function": null,
      "arguments": null,
      "transaction": {
        "type": "0x02",
        "from": "0x546b4666786c486eecc146fd04b6dfe1b166735b",
        "to": "0x9999f7fea5938fd3b1e26a12c3f2fb024e194f97",
        "gas": "0x14f3f",
        "value": "0x0",
        "data": "0xa9059cbb000000000000000000000000cb6d1c1e19a73ab55d798f9004a3f5aa4dac2dd20000000000000000000000000000000000000000000000000000000000000064",
        "nonce": "0x76",
        "accessList": []
      },
      "additionalContracts": [],
      "isFixedGasLimit": false
    },
    {
      "hash": "0x958ff4efd666dd45f4be30b71c52cc0c6be766935e9d130463534800fe26f682",
      "transactionType": "CALL",
      "contractName": null,
      "contractAddress": "0xA6FA4fB5f76172d178d61B04b0ecd319C5d1C0aa",
      "function": null,
      "arguments": null,
      "transaction": {
        "type": "0x02",
        "from": "0x546b4666786c486eecc146fd04b6dfe1b166735b",
        "to": "0xa6fa4fb5f76172d178d61b04b0ecd319c5d1c0aa",
        "gas": "0x134ff",
        "value": "0x0",
        "data": "0xa9059cbb000000000000000000000000cb6d1c1e19a73ab55d798f9004a3f5aa4dac2dd20000000000000000000000000000000000000000000000000000000000000064",
        "nonce": "0x77",
        "accessList": []
      },
      "additionalContracts": [],
      "isFixedGasLimit": false
    },
    {
      "hash": "0x047e62dc990768ed9f798bc8e9ef8a9e955921bcbd66d45dcf7209d7fe4714ed",
      "transactionType": "CALL",
      "contractName": "DeepFiConsumer",
      "contractAddress": "0xCB6d1C1e19a73AB55d798F9004A3F5AA4Dac2Dd2",
      "function": "updateConsumer(bytes)",
      "arguments": [
        "0x636f6e7374207265717565737444617461203d207b22656e7472795f7072696365223a2022222c7d3b20636f6e7374206169547261646572526573706f6e7365203d2061776169742046756e6374696f6e732e6d616b654874747052657175657374287b75726c3a2022687474703a2f2f6574687472616465722e707974686f6e616e7977686572652e636f6d2f74726164696e675f7369676e616c222c206d6574686f643a2022504f5354222c20686561646572733a207b22436f6e74656e742d54797065223a20226170706c69636174696f6e2f6a736f6e222c7d2c646174613a2072657175657374446174612c7d293b206966286169547261646572526573706f6e73652e6572726f7229207b7468726f77206e6577204572726f72284a534f4e2e737472696e67696679286169547261646572526573706f6e736529293b7d20636f6e737420616374696f6e203d206169547261646572526573706f6e73652e646174612e7369676e616c3b20636f6e736f6c652e6c6f6728616374696f6e293b2072657475726e2046756e6374696f6e732e656e636f6465537472696e6728616374696f6e293b"
      ],
      "transaction": {
        "type": "0x02",
        "from": "0x546b4666786c486eecc146fd04b6dfe1b166735b",
        "to": "0xcb6d1c1e19a73ab55d798f9004a3f5aa4dac2dd2",
        "gas": "0x51c1e",
        "value": "0x0",
        "data": "0xa975b359000000000000000000000000000000000000000000000000000000000000002000000000000000000000000000000000000000000000000000000000000001ac636f6e7374207265717565737444617461203d207b22656e7472795f7072696365223a2022222c7d3b20636f6e7374206169547261646572526573706f6e7365203d2061776169742046756e6374696f6e732e6d616b654874747052657175657374287b75726c3a2022687474703a2f2f6574687472616465722e707974686f6e616e7977686572652e636f6d2f74726164696e675f7369676e616c222c206d6574686f643a2022504f5354222c20686561646572733a207b22436f6e74656e742d54797065223a20226170706c69636174696f6e2f6a736f6e222c7d2c646174613a2072657175657374446174612c7d293b206966286169547261646572526573706f6e73652e6572726f7229207b7468726f77206e6577204572726f72284a534f4e2e737472696e67696679286169547261646572526573706f6e736529293b7d20636f6e737420616374696f6e203d206169547261646572526573706f6e73652e646174612e7369676e616c3b20636f6e736f6c652e6c6f6728616374696f6e293b2072657475726e2046756e6374696f6e732e656e636f6465537472696e6728616374696f6e293b0000000000000000000000000000000000000000",
        "nonce": "0x78",
        "accessList": []
      },
      "additionalContracts": [],
      "isFixedGasLimit": false
    }
  ],
  "receipts": [
    {
      "transactionHash": "0x31d7a58f4c0df8f686b985cfb6ad092b7ab5f7e76439d81c512c3c44f84694bc",
      "transactionIndex": "0x25",
      "blockHash": "0xf6463a7fa47bd0df3870a534aa234aee79ebffb68f2247da9427e340eb5dceeb",
      "blockNumber": "0x2969c02",
      "from": "0x546b4666786C486EECC146fD04b6dFe1b166735b",
      "to": null,
      "cumulativeGasUsed": "0x74c047",
      "gasUsed": "0x229179",
      "contractAddress": "0xCB6d1C1e19a73AB55d798F9004A3F5AA4Dac2Dd2",
      "logs": [
        {
          "address": "0x0000000000000000000000000000000000001010",
          "topics": [
            "0x4dfe1bbbcf077ddc3e01291eea2d5c70c2b422b415d95645b9adcfd678cb1d63",
            "0x0000000000000000000000000000000000000000000000000000000000001010",
            "0x000000000000000000000000546b4666786c486eecc146fd04b6dfe1b166735b",
            "0x000000000000000000000000cfef2a3dc244ef7d0fb93c45e762d671445c4569"
          ],
          "data": "0x00000000000000000000000000000000000000000000000000080c6daa8cf3e90000000000000000000000000000000000000000000000001201dc44086315e60000000000000000000000000000000000000000000000e306d2e772a477e0c300000000000000000000000000000000000000000000000011f9cfd65dd621fd0000000000000000000000000000000000000000000000e306daf3e04f04d4ac",
          "blockHash": "0xf6463a7fa47bd0df3870a534aa234aee79ebffb68f2247da9427e340eb5dceeb",
          "blockNumber": "0x2969c02",
          "transactionHash": "0x31d7a58f4c0df8f686b985cfb6ad092b7ab5f7e76439d81c512c3c44f84694bc",
          "transactionIndex": "0x25",
          "logIndex": "0x77",
          "removed": false
        }
      ],
      "status": "0x1",
      "logsBloom": "0x00000000010000000000000000000000000000000000000000000000000000000000000000000000000000000000000000008000000000000000000000000000000000000000000000000000000000800000000000000040020100000000000000000000000000000000000000000000000000000000000080000000000000000000000000000000000000000000000000000000000000000000000000000000200000000000000000000000000000000000000000000000000000000001004000000000000010000001000000000000000000000000000000100000000000000000000000000000000000000000000000000000000000000000040000100000",
      "type": "0x2",
      "effectiveGasPrice": "0x3b9aca00"
    },
    {
      "transactionHash": "0x575d910b4de7ec89cd6eb673ad8d4c0cfb2878d4c2c597865a0f15a3942b23a6",
      "transactionIndex": "0x26",
      "blockHash": "0xf6463a7fa47bd0df3870a534aa234aee79ebffb68f2247da9427e340eb5dceeb",
      "blockNumber": "0x2969c02",
      "from": "0x546b4666786C486EECC146fD04b6dFe1b166735b",
      "to": "0xCB6d1C1e19a73AB55d798F9004A3F5AA4Dac2Dd2",
      "cumulativeGasUsed": "0x758fa3",
      "gasUsed": "0xcf5c",
      "contractAddress": null,
      "logs": [
        {
          "address": "0x0000000000000000000000000000000000001010",
          "topics": [
            "0x4dfe1bbbcf077ddc3e01291eea2d5c70c2b422b415d95645b9adcfd678cb1d63",
            "0x0000000000000000000000000000000000000000000000000000000000001010",
            "0x000000000000000000000000546b4666786c486eecc146fd04b6dfe1b166735b",
            "0x000000000000000000000000cfef2a3dc244ef7d0fb93c45e762d671445c4569"
          ],
          "data": "0x0000000000000000000000000000000000000000000000000000304794ea719c00000000000000000000000000000000000000000000000011f9cfd65bcf9be60000000000000000000000000000000000000000000000e306daf3e04f04d4ac00000000000000000000000000000000000000000000000011f99f8ec6e52a4a0000000000000000000000000000000000000000000000e306db2427e3ef4648",
          "blockHash": "0xf6463a7fa47bd0df3870a534aa234aee79ebffb68f2247da9427e340eb5dceeb",
          "blockNumber": "0x2969c02",
          "transactionHash": "0x575d910b4de7ec89cd6eb673ad8d4c0cfb2878d4c2c597865a0f15a3942b23a6",
          "transactionIndex": "0x26",
          "logIndex": "0x78",
          "removed": false
        }
      ],
      "status": "0x1",
      "logsBloom": "0x00000000010000000000000000000000000000000000000000000000000000000000000000000000000000000000000000008000000000000000000000000000000000000000000000000000000000800000000000000040020100000000000000000000000000000000000000000000000000000000000080000000000000000000000000000000000000000000000000000000000000000000000000000000200000000000000000000000000000000000000000000000000000000001004000000000000010000001000000000000000000000000000000100000000000000000000000000000000000000000000000000000000000000000040000100000",
      "type": "0x2",
      "effectiveGasPrice": "0x3b9aca00"
    },
    {
      "transactionHash": "0x3a5ff0c195187351fc16b375353e9f853e5651c54b1bfa2e3bbdc6cb4f8beef2",
      "transactionIndex": "0x27",
      "blockHash": "0xf6463a7fa47bd0df3870a534aa234aee79ebffb68f2247da9427e340eb5dceeb",
      "blockNumber": "0x2969c02",
      "from": "0x546b4666786C486EECC146fD04b6dFe1b166735b",
      "to": "0xCB6d1C1e19a73AB55d798F9004A3F5AA4Dac2Dd2",
      "cumulativeGasUsed": "0x77ffae",
      "gasUsed": "0x2700b",
      "contractAddress": null,
      "logs": [
        {
          "address": "0x0000000000000000000000000000000000001010",
          "topics": [
            "0x4dfe1bbbcf077ddc3e01291eea2d5c70c2b422b415d95645b9adcfd678cb1d63",
            "0x0000000000000000000000000000000000000000000000000000000000001010",
            "0x000000000000000000000000546b4666786c486eecc146fd04b6dfe1b166735b",
            "0x000000000000000000000000cfef2a3dc244ef7d0fb93c45e762d671445c4569"
          ],
          "data": "0x0000000000000000000000000000000000000000000000000000914bdbe21d5b00000000000000000000000000000000000000000000000011f99f8ec6d903e60000000000000000000000000000000000000000000000e306db2427e3ef464800000000000000000000000000000000000000000000000011f90e42eaf6e68b0000000000000000000000000000000000000000000000e306dbb573bfd163a3",
          "blockHash": "0xf6463a7fa47bd0df3870a534aa234aee79ebffb68f2247da9427e340eb5dceeb",
          "blockNumber": "0x2969c02",
          "transactionHash": "0x3a5ff0c195187351fc16b375353e9f853e5651c54b1bfa2e3bbdc6cb4f8beef2",
          "transactionIndex": "0x27",
          "logIndex": "0x79",
          "removed": false
        }
      ],
      "status": "0x1",
      "logsBloom": "0x00000000010000000000000000000000000000000000000000000000000000000000000000000000000000000000000000008000000000000000000000000000000000000000000000000000000000800000000000000040020100000000000000000000000000000000000000000000000000000000000080000000000000000000000000000000000000000000000000000000000000000000000000000000200000000000000000000000000000000000000000000000000000000001004000000000000010000001000000000000000000000000000000100000000000000000000000000000000000000000000000000000000000000000040000100000",
      "type": "0x2",
      "effectiveGasPrice": "0x3b9aca00"
    },
    {
      "transactionHash": "0x602c05238e7f3feea338133afeb8723994c504c8d18872846f1e5a9c7335770a",
      "transactionIndex": "0x28",
      "blockHash": "0xf6463a7fa47bd0df3870a534aa234aee79ebffb68f2247da9427e340eb5dceeb",
      "blockNumber": "0x2969c02",
      "from": "0x546b4666786C486EECC146fD04b6dFe1b166735b",
      "to": "0x6E2dc0F9DB014aE19888F539E59285D2Ea04244C",
      "cumulativeGasUsed": "0x796937",
      "gasUsed": "0x16989",
      "contractAddress": null,
      "logs": [
        {
          "address": "0x6E2dc0F9DB014aE19888F539E59285D2Ea04244C",
          "topics": [
            "0x43dc749a04ac8fb825cbd514f7c0e13f13bc6f2ee66043b76629d51776cff8e0",
            "0x00000000000000000000000000000000000000000000000000000000000003e9"
          ],
          "data": "0x000000000000000000000000cb6d1c1e19a73ab55d798f9004a3f5aa4dac2dd2",
          "blockHash": "0xf6463a7fa47bd0df3870a534aa234aee79ebffb68f2247da9427e340eb5dceeb",
          "blockNumber": "0x2969c02",
          "transactionHash": "0x602c05238e7f3feea338133afeb8723994c504c8d18872846f1e5a9c7335770a",
          "transactionIndex": "0x28",
          "logIndex": "0x7a",
          "removed": false
        },
        {
          "address": "0x0000000000000000000000000000000000001010",
          "topics": [
            "0x4dfe1bbbcf077ddc3e01291eea2d5c70c2b422b415d95645b9adcfd678cb1d63",
            "0x0000000000000000000000000000000000000000000000000000000000001010",
            "0x000000000000000000000000546b4666786c486eecc146fd04b6dfe1b166735b",
            "0x000000000000000000000000cfef2a3dc244ef7d0fb93c45e762d671445c4569"
          ],
          "data": "0x0000000000000000000000000000000000000000000000000000542d2c9aeaf900000000000000000000000000000000000000000000000011f90e42ead255e60000000000000000000000000000000000000000000000e306dbb573bfd163a300000000000000000000000000000000000000000000000011f8ba15be376aed0000000000000000000000000000000000000000000000e306dc09a0ec6c4e9c",
          "blockHash": "0xf6463a7fa47bd0df3870a534aa234aee79ebffb68f2247da9427e340eb5dceeb",
          "blockNumber": "0x2969c02",
          "transactionHash": "0x602c05238e7f3feea338133afeb8723994c504c8d18872846f1e5a9c7335770a",
          "transactionIndex": "0x28",
          "logIndex": "0x7b",
          "removed": false
        }
      ],
      "status": "0x1",
      "logsBloom": "0x00000000010000000000000000000000000000000000000000000000100000000000000000000000000000000000000000008000000000000000000000000000000000000000000000000010000000800000000000000040020100000000000000000000000080000000000000000000000000000000000080000000020000000000000000000000000080000000000000000000000000000000000000000000200000000000000000000080000000000000000000000000000000000001004000000000000010000001000000000000000000000008000000120000000000000000200000000000000000000000000000000000000000000000040000100000",
      "type": "0x2",
      "effectiveGasPrice": "0x3b9aca00"
    },
    {
      "transactionHash": "0xb06449b6c7618dfd845fe0a786bac38b1bf6aa987d877e20d5e62a39d75ffdfa",
      "transactionIndex": "0x29",
      "blockHash": "0xf6463a7fa47bd0df3870a534aa234aee79ebffb68f2247da9427e340eb5dceeb",
      "blockNumber": "0x2969c02",
      "from": "0x546b4666786C486EECC146fD04b6dFe1b166735b",
      "to": "0x9999f7Fea5938fD3b1E26A12c3f2fb024e194f97",
      "cumulativeGasUsed": "0x7a5bee",
      "gasUsed": "0xf2b7",
      "contractAddress": null,
      "logs": [
        {
          "address": "0x9999f7Fea5938fD3b1E26A12c3f2fb024e194f97",
          "topics": [
            "0xddf252ad1be2c89b69c2b068fc378daa952ba7f163c4a11628f55a4df523b3ef",
            "0x000000000000000000000000546b4666786c486eecc146fd04b6dfe1b166735b",
            "0x000000000000000000000000cb6d1c1e19a73ab55d798f9004a3f5aa4dac2dd2"
          ],
          "data": "0x0000000000000000000000000000000000000000000000000000000000000064",
          "blockHash": "0xf6463a7fa47bd0df3870a534aa234aee79ebffb68f2247da9427e340eb5dceeb",
          "blockNumber": "0x2969c02",
          "transactionHash": "0xb06449b6c7618dfd845fe0a786bac38b1bf6aa987d877e20d5e62a39d75ffdfa",
          "transactionIndex": "0x29",
          "logIndex": "0x7c",
          "removed": false
        },
        {
          "address": "0x0000000000000000000000000000000000001010",
          "topics": [
            "0x4dfe1bbbcf077ddc3e01291eea2d5c70c2b422b415d95645b9adcfd678cb1d63",
            "0x0000000000000000000000000000000000000000000000000000000000001010",
            "0x000000000000000000000000546b4666786c486eecc146fd04b6dfe1b166735b",
            "0x000000000000000000000000cfef2a3dc244ef7d0fb93c45e762d671445c4569"
          ],
          "data": "0x00000000000000000000000000000000000000000000000000003882ee8c2d4700000000000000000000000000000000000000000000000011f8ba15be223be60000000000000000000000000000000000000000000000e306dc09a0ec6c4e9c00000000000000000000000000000000000000000000000011f88192cf960e9f0000000000000000000000000000000000000000000000e306dc4223daf87be3",
          "blockHash": "0xf6463a7fa47bd0df3870a534aa234aee79ebffb68f2247da9427e340eb5dceeb",
          "blockNumber": "0x2969c02",
          "transactionHash": "0xb06449b6c7618dfd845fe0a786bac38b1bf6aa987d877e20d5e62a39d75ffdfa",
          "transactionIndex": "0x29",
          "logIndex": "0x7d",
          "removed": false
        }
      ],
      "status": "0x1",
      "logsBloom": "0x00000000010000000000000000000000000000000000000800000000000000000000000000000000004000000004000000008000000000000000000000000000000000000000000000000008000400800000000000000040020100000000000000000000000000000000000000000000000000000000000080000010000000000000000000000000000000000000000000000000000000000000000000000000200000000000000000000000000000000000000000000000000000000001004000001002000010000001000000000000000000000000000000100000000000000000000000000000000000000000080000000000000000000000040000100000",
      "type": "0x2",
      "effectiveGasPrice": "0x3b9aca00"
    },
    {
      "transactionHash": "0x958ff4efd666dd45f4be30b71c52cc0c6be766935e9d130463534800fe26f682",
      "transactionIndex": "0x2a",
      "blockHash": "0xf6463a7fa47bd0df3870a534aa234aee79ebffb68f2247da9427e340eb5dceeb",
      "blockNumber": "0x2969c02",
      "from": "0x546b4666786C486EECC146fD04b6dFe1b166735b",
      "to": "0xA6FA4fB5f76172d178d61B04b0ecd319C5d1C0aa",
      "cumulativeGasUsed": "0x7b3ba4",
      "gasUsed": "0xdfb6",
      "contractAddress": null,
      "logs": [
        {
          "address": "0xA6FA4fB5f76172d178d61B04b0ecd319C5d1C0aa",
          "topics": [
            "0xddf252ad1be2c89b69c2b068fc378daa952ba7f163c4a11628f55a4df523b3ef",
            "0x000000000000000000000000546b4666786c486eecc146fd04b6dfe1b166735b",
            "0x000000000000000000000000cb6d1c1e19a73ab55d798f9004a3f5aa4dac2dd2"
          ],
          "data": "0x0000000000000000000000000000000000000000000000000000000000000064",
          "blockHash": "0xf6463a7fa47bd0df3870a534aa234aee79ebffb68f2247da9427e340eb5dceeb",
          "blockNumber": "0x2969c02",
          "transactionHash": "0x958ff4efd666dd45f4be30b71c52cc0c6be766935e9d130463534800fe26f682",
          "transactionIndex": "0x2a",
          "logIndex": "0x7e",
          "removed": false
        },
        {
          "address": "0x0000000000000000000000000000000000001010",
          "topics": [
            "0x4dfe1bbbcf077ddc3e01291eea2d5c70c2b422b415d95645b9adcfd678cb1d63",
            "0x0000000000000000000000000000000000000000000000000000000000001010",
            "0x000000000000000000000000546b4666786c486eecc146fd04b6dfe1b166735b",
            "0x000000000000000000000000cfef2a3dc244ef7d0fb93c45e762d671445c4569"
          ],
          "data": "0x0000000000000000000000000000000000000000000000000000341635f4805600000000000000000000000000000000000000000000000011f88192cf87d5e60000000000000000000000000000000000000000000000e306dc4223daf87be300000000000000000000000000000000000000000000000011f84d7c999355900000000000000000000000000000000000000000000000e306dc763a10ecfc39",
          "blockHash": "0xf6463a7fa47bd0df3870a534aa234aee79ebffb68f2247da9427e340eb5dceeb",
          "blockNumber": "0x2969c02",
          "transactionHash": "0x958ff4efd666dd45f4be30b71c52cc0c6be766935e9d130463534800fe26f682",
          "transactionIndex": "0x2a",
          "logIndex": "0x7f",
          "removed": false
        }
      ],
      "status": "0x1",
      "logsBloom": "0x00000000010000000000000000000000000000000000000800000000008000000000000000000000004000000004000000008000000000000000000000000000000000000000000000000008000000800000000000000040020100000000000000000000000000000000000000000000000000000000000080000010000000000000000000000000000000000000000000000000000000000080000000000000200000000000000000000000000000000000000000000000000000000001004000000002000010000001000000000000000000000000000000100000000000000000000000000000000000000000000000000000000000000000040000100000",
      "type": "0x2",
      "effectiveGasPrice": "0x3b9aca00"
    },
    {
      "transactionHash": "0x047e62dc990768ed9f798bc8e9ef8a9e955921bcbd66d45dcf7209d7fe4714ed",
      "transactionIndex": "0x2b",
      "blockHash": "0xf6463a7fa47bd0df3870a534aa234aee79ebffb68f2247da9427e340eb5dceeb",
      "blockNumber": "0x2969c02",
      "from": "0x546b4666786C486EECC146fD04b6dFe1b166735b",
      "to": "0xCB6d1C1e19a73AB55d798F9004A3F5AA4Dac2Dd2",
      "cumulativeGasUsed": "0x7eeeb3",
      "gasUsed": "0x3b30f",
      "contractAddress": null,
      "logs": [
        {
          "address": "0x3299b518873b542C57B2ac75a001a623F675810D",
          "topics": [
            "0xbf50768ccf13bd0110ca6d53a9c4f1f3271abdd4c24a56878863ed25b20598ff",
            "0xb8bcee18aa5ad56bc1f0f61f9feafce3bb55788cc6c9b7e9e768f69bfc8649bd",
            "0x000000000000000000000000cb6d1c1e19a73ab55d798f9004a3f5aa4dac2dd2"
          ],
          "data": "0x000000000000000000000000546b4666786c486eecc146fd04b6dfe1b166735b00000000000000000000000000000000000000000000000000000000000003e9000000000000000000000000546b4666786c486eecc146fd04b6dfe1b166735b00000000000000000000000000000000000000000000000000000000000002400000000000000000000000000000000000000000000000000000000000000001000000000000000000000000000000000000000000000000000000000000000000000000000000000000000000000000000000000000000000000000000493e0b8bcee18aa5ad56bc1f0f61f9feafce3bb55788cc6c9b7e9e768f69bfc8649bd0000000000000000000000003299b518873b542c57b2ac75a001a623f675810d00000000000000000000000000000000000000000000000002cf9669b711db98000000000000000000000000cb6d1c1e19a73ab55d798f9004a3f5aa4dac2dd200000000000000000000000000000000000000000000000000000000000003e900000000000000000000000000000000000000000000000000000000000493e000000000000000000000000000000000000000000000000002c68af0bb14000000000000000000000000000000000000000000000000000000000000000000000000000000000000000000000000000000000000000000000000000000019a280000000000000000000000000000000000000000000000000000000000009c400000000000000000000000000000000000000000000000000000000065765c6300000000000000000000000000000000000000000000000000000000000002126c636f64654c6f636174696f6ec258200000000000000000000000000000000000000000000000000000000000000000686c616e6775616765c25820000000000000000000000000000000000000000000000000000000000000000066736f757263657901ac636f6e7374207265717565737444617461203d207b22656e7472795f7072696365223a2022222c7d3b20636f6e7374206169547261646572526573706f6e7365203d2061776169742046756e6374696f6e732e6d616b654874747052657175657374287b75726c3a2022687474703a2f2f6574687472616465722e707974686f6e616e7977686572652e636f6d2f74726164696e675f7369676e616c222c206d6574686f643a2022504f5354222c20686561646572733a207b22436f6e74656e742d54797065223a20226170706c69636174696f6e2f6a736f6e222c7d2c646174613a2072657175657374446174612c7d293b206966286169547261646572526573706f6e73652e6572726f7229207b7468726f77206e6577204572726f72284a534f4e2e737472696e67696679286169547261646572526573706f6e736529293b7d20636f6e737420616374696f6e203d206169547261646572526573706f6e73652e646174612e7369676e616c3b20636f6e736f6c652e6c6f6728616374696f6e293b2072657475726e2046756e6374696f6e732e656e636f6465537472696e6728616374696f6e293b0000000000000000000000000000",
          "blockHash": "0xf6463a7fa47bd0df3870a534aa234aee79ebffb68f2247da9427e340eb5dceeb",
          "blockNumber": "0x2969c02",
          "transactionHash": "0x047e62dc990768ed9f798bc8e9ef8a9e955921bcbd66d45dcf7209d7fe4714ed",
          "transactionIndex": "0x2b",
          "logIndex": "0x80",
          "removed": false
        },
        {
          "address": "0x6E2dc0F9DB014aE19888F539E59285D2Ea04244C",
          "topics": [
            "0xf67aec45c9a7ede407974a3e0c3a743dffeab99ee3f2d4c9a8144c2ebf2c7ec9",
            "0xb8bcee18aa5ad56bc1f0f61f9feafce3bb55788cc6c9b7e9e768f69bfc8649bd",
            "0x66756e2d706f6c79676f6e2d6d756d6261692d31000000000000000000000000",
            "0x00000000000000000000000000000000000000000000000000000000000003e9"
          ],
          "data": "0x000000000000000000000000546b4666786c486eecc146fd04b6dfe1b166735b000000000000000000000000cb6d1c1e19a73ab55d798f9004a3f5aa4dac2dd2000000000000000000000000546b4666786c486eecc146fd04b6dfe1b166735b00000000000000000000000000000000000000000000000000000000000000e0000000000000000000000000000000000000000000000000000000000000000100000000000000000000000000000000000000000000000000000000000493e000000000000000000000000000000000000000000000000002cf9669b711db9800000000000000000000000000000000000000000000000000000000000002126c636f64654c6f636174696f6ec258200000000000000000000000000000000000000000000000000000000000000000686c616e6775616765c25820000000000000000000000000000000000000000000000000000000000000000066736f757263657901ac636f6e7374207265717565737444617461203d207b22656e7472795f7072696365223a2022222c7d3b20636f6e7374206169547261646572526573706f6e7365203d2061776169742046756e6374696f6e732e6d616b654874747052657175657374287b75726c3a2022687474703a2f2f6574687472616465722e707974686f6e616e7977686572652e636f6d2f74726164696e675f7369676e616c222c206d6574686f643a2022504f5354222c20686561646572733a207b22436f6e74656e742d54797065223a20226170706c69636174696f6e2f6a736f6e222c7d2c646174613a2072657175657374446174612c7d293b206966286169547261646572526573706f6e73652e6572726f7229207b7468726f77206e6577204572726f72284a534f4e2e737472696e67696679286169547261646572526573706f6e736529293b7d20636f6e737420616374696f6e203d206169547261646572526573706f6e73652e646174612e7369676e616c3b20636f6e736f6c652e6c6f6728616374696f6e293b2072657475726e2046756e6374696f6e732e656e636f6465537472696e6728616374696f6e293b0000000000000000000000000000",
          "blockHash": "0xf6463a7fa47bd0df3870a534aa234aee79ebffb68f2247da9427e340eb5dceeb",
          "blockNumber": "0x2969c02",
          "transactionHash": "0x047e62dc990768ed9f798bc8e9ef8a9e955921bcbd66d45dcf7209d7fe4714ed",
          "transactionIndex": "0x2b",
          "logIndex": "0x81",
          "removed": false
        },
        {
          "address": "0xCB6d1C1e19a73AB55d798F9004A3F5AA4Dac2Dd2",
          "topics": [
            "0x1131472297a800fee664d1d89cfa8f7676ff07189ecc53f80bbb5f4969099db8",
            "0xb8bcee18aa5ad56bc1f0f61f9feafce3bb55788cc6c9b7e9e768f69bfc8649bd"
          ],
          "data": "0x",
          "blockHash": "0xf6463a7fa47bd0df3870a534aa234aee79ebffb68f2247da9427e340eb5dceeb",
          "blockNumber": "0x2969c02",
          "transactionHash": "0x047e62dc990768ed9f798bc8e9ef8a9e955921bcbd66d45dcf7209d7fe4714ed",
          "transactionIndex": "0x2b",
          "logIndex": "0x82",
          "removed": false
        },
        {
          "address": "0x0000000000000000000000000000000000001010",
          "topics": [
            "0x4dfe1bbbcf077ddc3e01291eea2d5c70c2b422b415d95645b9adcfd678cb1d63",
            "0x0000000000000000000000000000000000000000000000000000000000001010",
            "0x000000000000000000000000546b4666786c486eecc146fd04b6dfe1b166735b",
            "0x000000000000000000000000cfef2a3dc244ef7d0fb93c45e762d671445c4569"
          ],
          "data": "0x0000000000000000000000000000000000000000000000000000dc811718581f00000000000000000000000000000000000000000000000011f84d7c998639e60000000000000000000000000000000000000000000000e306dc763a10ecfc3900000000000000000000000000000000000000000000000011f770fb826de1c70000000000000000000000000000000000000000000000e306dd52bb28055458",
          "blockHash": "0xf6463a7fa47bd0df3870a534aa234aee79ebffb68f2247da9427e340eb5dceeb",
          "blockNumber": "0x2969c02",
          "transactionHash": "0x047e62dc990768ed9f798bc8e9ef8a9e955921bcbd66d45dcf7209d7fe4714ed",
          "transactionIndex": "0x2b",
          "logIndex": "0x83",
          "removed": false
        }
      ],
      "status": "0x1",
      "logsBloom": "0x00000000090000400000000000000000000000000004004800000000100000000000000000000000004000100004000000008000000000000000000000000000000000000000000000000010000000800800000000000440020100000000000000000010000000000000000100000000000000108000000080000000020000000000000000000000000080000000000000000000000000000000001000000000200000000000000800000000000000000000000000000000000000000001004040000000000010000081000800000000000000000008022000100400000000000000200000000000000000010000000000000000000000000000040000300000",
      "type": "0x2",
      "effectiveGasPrice": "0x3b9aca00"
    }
  ],
  "libraries": [],
  "pending": [],
  "returns": {},
  "timestamp": 1702255544,
  "chain": 80001,
  "multi": false,
  "commit": "295d052"
}